{
  "contractName": "MarketPool_Items",
  "abi": [
    {
      "anonymous": false,
      "inputs": [
        {
          "indexed": true,
          "internalType": "uint256",
          "name": "marketId",
          "type": "uint256"
        },
        {
          "indexed": true,
          "internalType": "uint256",
          "name": "itemTypeId",
          "type": "uint256"
        },
        {
          "indexed": true,
          "internalType": "uint256",
          "name": "itemId",
          "type": "uint256"
        }
      ],
      "name": "ItemCreated",
      "type": "event"
    },
    {
      "anonymous": false,
      "inputs": [
        {
          "indexed": true,
          "internalType": "uint256",
          "name": "marketId",
          "type": "uint256"
        },
        {
          "indexed": false,
          "internalType": "uint256",
          "name": "itemId",
          "type": "uint256"
        },
        {
          "indexed": true,
          "internalType": "address",
          "name": "previousOwner",
          "type": "address"
        },
        {
          "indexed": true,
          "internalType": "address",
          "name": "newOwner",
          "type": "address"
        }
      ],
      "name": "ItemOwnershipTransferred",
      "type": "event"
    },
    {
      "anonymous": false,
      "inputs": [
        {
          "indexed": true,
          "internalType": "uint256",
          "name": "marketId",
          "type": "uint256"
        },
        {
          "indexed": true,
          "internalType": "uint256",
          "name": "itemTypeId",
          "type": "uint256"
        }
      ],
      "name": "ItemTypeCreated",
      "type": "event"
    },
    {
      "anonymous": false,
      "inputs": [
        {
          "indexed": true,
          "internalType": "uint256",
          "name": "marketId",
          "type": "uint256"
        },
        {
          "indexed": true,
          "internalType": "address",
          "name": "owner",
          "type": "address"
        }
      ],
      "name": "MarketCreated",
      "type": "event"
    },
    {
      "anonymous": false,
      "inputs": [
        {
          "indexed": true,
          "internalType": "uint256",
          "name": "marketId",
          "type": "uint256"
        },
        {
          "indexed": true,
          "internalType": "address",
          "name": "previousOwner",
          "type": "address"
        },
        {
          "indexed": true,
          "internalType": "address",
          "name": "newOwner",
          "type": "address"
        }
      ],
      "name": "MarketOwnershipTransferred",
      "type": "event"
    },
    {
      "anonymous": false,
      "inputs": [
        {
          "indexed": true,
          "internalType": "address",
          "name": "previousOwner",
          "type": "address"
        },
        {
          "indexed": true,
          "internalType": "address",
          "name": "newOwner",
          "type": "address"
        }
      ],
      "name": "OwnershipTransferred",
      "type": "event"
    },
    {
      "stateMutability": "payable",
      "type": "fallback",
      "payable": true
    },
    {
      "inputs": [
        {
          "internalType": "string",
          "name": "name",
          "type": "string"
        }
      ],
      "name": "createMarket",
      "outputs": [
        {
          "internalType": "uint256",
          "name": "",
          "type": "uint256"
        }
      ],
      "stateMutability": "nonpayable",
      "type": "function"
    },
    {
      "inputs": [
        {
          "internalType": "address",
          "name": "owner",
          "type": "address"
        }
      ],
      "name": "getMarketCounts",
      "outputs": [
        {
          "internalType": "uint256",
          "name": "",
          "type": "uint256"
        }
      ],
      "stateMutability": "view",
      "type": "function",
      "constant": true
    },
    {
      "inputs": [
        {
          "internalType": "uint256",
          "name": "marketId",
          "type": "uint256"
        }
      ],
      "name": "getMarketData",
      "outputs": [
        {
          "internalType": "string",
          "name": "name",
          "type": "string"
        }
      ],
      "stateMutability": "view",
      "type": "function",
      "constant": true
    },
    {
      "inputs": [
        {
          "internalType": "uint256",
          "name": "marketId",
          "type": "uint256"
        }
      ],
      "name": "getMarketOwner",
      "outputs": [
        {
          "internalType": "address",
          "name": "",
          "type": "address"
        }
      ],
      "stateMutability": "view",
      "type": "function",
      "constant": true
    },
    {
      "inputs": [
        {
          "internalType": "uint256",
          "name": "marketId",
          "type": "uint256"
        }
      ],
      "name": "isMarketOwner",
      "outputs": [
        {
          "internalType": "bool",
          "name": "",
          "type": "bool"
        }
      ],
      "stateMutability": "view",
      "type": "function",
      "constant": true
    },
    {
      "inputs": [],
      "name": "isOwner",
      "outputs": [
        {
          "internalType": "bool",
          "name": "",
          "type": "bool"
        }
      ],
      "stateMutability": "view",
      "type": "function",
      "constant": true
    },
    {
      "inputs": [
        {
          "internalType": "uint256",
          "name": "marketId",
          "type": "uint256"
        }
      ],
      "name": "marketExist",
      "outputs": [
        {
          "internalType": "bool",
          "name": "",
          "type": "bool"
        }
      ],
      "stateMutability": "view",
      "type": "function",
      "constant": true
    },
    {
      "inputs": [
        {
          "internalType": "uint256",
          "name": "",
          "type": "uint256"
        },
        {
          "internalType": "uint256",
          "name": "",
          "type": "uint256"
        }
      ],
      "name": "marketToItemToOwner",
      "outputs": [
        {
          "internalType": "address",
          "name": "",
          "type": "address"
        }
      ],
      "stateMutability": "view",
      "type": "function",
      "constant": true
    },
    {
      "inputs": [
        {
          "internalType": "uint256",
          "name": "",
          "type": "uint256"
        },
        {
          "internalType": "uint256",
          "name": "",
          "type": "uint256"
        }
      ],
      "name": "marketToItemTypes",
      "outputs": [
        {
          "internalType": "string",
          "name": "name",
          "type": "string"
        },
        {
          "internalType": "uint256",
          "name": "remainingSupply",
          "type": "uint256"
        },
        {
          "internalType": "uint256",
          "name": "totalSupply",
          "type": "uint256"
        },
        {
          "internalType": "bool",
          "name": "isFinal",
          "type": "bool"
        },
        {
          "internalType": "bool",
          "name": "allowSale",
          "type": "bool"
        },
        {
          "internalType": "bool",
          "name": "allowAuction",
          "type": "bool"
        },
        {
          "internalType": "bool",
          "name": "allowRent",
          "type": "bool"
        },
        {
          "internalType": "bool",
          "name": "allowLootbox",
          "type": "bool"
        }
      ],
      "stateMutability": "view",
      "type": "function",
      "constant": true
    },
    {
      "inputs": [
        {
          "internalType": "uint256",
          "name": "",
          "type": "uint256"
        },
        {
          "internalType": "uint256",
          "name": "",
          "type": "uint256"
        }
      ],
      "name": "marketToItems",
      "outputs": [
        {
          "internalType": "uint256",
          "name": "typeId",
          "type": "uint256"
        }
      ],
      "stateMutability": "view",
      "type": "function",
      "constant": true
    },
    {
      "inputs": [
        {
          "internalType": "uint256",
          "name": "",
          "type": "uint256"
        },
        {
          "internalType": "address",
          "name": "",
          "type": "address"
        }
      ],
      "name": "marketToUsersToItemsCount",
      "outputs": [
        {
          "internalType": "uint256",
          "name": "_value",
          "type": "uint256"
        }
      ],
      "stateMutability": "view",
      "type": "function",
      "constant": true
    },
    {
      "inputs": [
        {
          "internalType": "uint256",
          "name": "",
          "type": "uint256"
        }
      ],
      "name": "markets",
      "outputs": [
        {
          "internalType": "string",
          "name": "name",
          "type": "string"
        }
      ],
      "stateMutability": "view",
      "type": "function",
      "constant": true
    },
    {
      "inputs": [],
      "name": "owner",
      "outputs": [
        {
          "internalType": "address",
          "name": "",
          "type": "address"
        }
      ],
      "stateMutability": "view",
      "type": "function",
      "constant": true
    },
    {
      "inputs": [
        {
          "internalType": "uint256",
          "name": "marketId",
          "type": "uint256"
        }
      ],
      "name": "renounceMarketOwnership",
      "outputs": [],
      "stateMutability": "nonpayable",
      "type": "function"
    },
    {
      "inputs": [],
      "name": "renounceOwnership",
      "outputs": [],
      "stateMutability": "nonpayable",
      "type": "function"
    },
    {
      "inputs": [
        {
          "internalType": "uint256",
          "name": "marketId",
          "type": "uint256"
        },
        {
          "internalType": "address",
          "name": "newOwner",
          "type": "address"
        }
      ],
      "name": "transferMarketOwnership",
      "outputs": [],
      "stateMutability": "nonpayable",
      "type": "function"
    },
    {
      "inputs": [
        {
          "internalType": "address",
          "name": "newOwner",
          "type": "address"
        }
      ],
      "name": "transferOwnership",
      "outputs": [],
      "stateMutability": "nonpayable",
      "type": "function"
    },
    {
      "inputs": [],
      "name": "withdraw",
      "outputs": [],
      "stateMutability": "nonpayable",
      "type": "function"
    },
    {
      "stateMutability": "payable",
      "type": "receive",
      "payable": true
    },
    {
      "inputs": [
        {
          "internalType": "uint256",
          "name": "marketId",
          "type": "uint256"
        },
        {
          "internalType": "string",
          "name": "name",
          "type": "string"
        },
        {
          "internalType": "uint256",
          "name": "totalSupply",
          "type": "uint256"
        },
        {
          "internalType": "bool",
          "name": "allowSale",
          "type": "bool"
        },
        {
          "internalType": "bool",
          "name": "allowAuction",
          "type": "bool"
        },
        {
          "internalType": "bool",
          "name": "allowRent",
          "type": "bool"
        },
        {
          "internalType": "bool",
          "name": "allowLootbox",
          "type": "bool"
        }
      ],
      "name": "createItemType",
      "outputs": [
        {
          "internalType": "uint256",
          "name": "",
          "type": "uint256"
        }
      ],
      "stateMutability": "nonpayable",
      "type": "function"
    },
    {
      "inputs": [
        {
          "internalType": "uint256",
          "name": "marketId",
          "type": "uint256"
        },
        {
          "internalType": "uint256",
          "name": "typeId",
          "type": "uint256"
        }
      ],
      "name": "createItem",
      "outputs": [
        {
          "internalType": "uint256",
          "name": "",
          "type": "uint256"
        }
      ],
      "stateMutability": "nonpayable",
      "type": "function"
    },
    {
      "inputs": [
        {
          "internalType": "uint256",
          "name": "marketId",
          "type": "uint256"
        },
        {
          "internalType": "uint256",
          "name": "itemId",
          "type": "uint256"
        },
        {
          "internalType": "address",
          "name": "to",
          "type": "address"
        }
      ],
      "name": "transferItemOwnership",
      "outputs": [],
      "stateMutability": "nonpayable",
      "type": "function"
    },
    {
      "inputs": [
        {
          "internalType": "uint256",
          "name": "marketId",
          "type": "uint256"
        },
        {
          "internalType": "uint256",
          "name": "typeId",
          "type": "uint256"
        }
      ],
      "name": "getItemTypeData",
      "outputs": [
        {
          "internalType": "string",
          "name": "name",
          "type": "string"
        },
        {
          "internalType": "uint256",
          "name": "remainingSupply",
          "type": "uint256"
        },
        {
          "internalType": "uint256",
          "name": "totalSupply",
          "type": "uint256"
        },
        {
          "internalType": "bool",
          "name": "isFinal",
          "type": "bool"
        },
        {
          "internalType": "bool",
          "name": "allowSale",
          "type": "bool"
        },
        {
          "internalType": "bool",
          "name": "allowAuction",
          "type": "bool"
        },
        {
          "internalType": "bool",
          "name": "allowRent",
          "type": "bool"
        },
        {
          "internalType": "bool",
          "name": "allowLootbox",
          "type": "bool"
        }
      ],
      "stateMutability": "view",
      "type": "function",
      "constant": true
    },
    {
      "inputs": [
        {
          "internalType": "uint256",
          "name": "marketId",
          "type": "uint256"
        },
        {
          "internalType": "uint256",
          "name": "itemId",
          "type": "uint256"
        }
      ],
      "name": "getItemData",
      "outputs": [
        {
          "internalType": "uint256",
          "name": "itemTypeId",
          "type": "uint256"
        }
      ],
      "stateMutability": "view",
      "type": "function",
      "constant": true
    },
    {
      "inputs": [
        {
          "internalType": "uint256",
          "name": "marketId",
          "type": "uint256"
        },
        {
          "internalType": "address",
          "name": "itemsOwner",
          "type": "address"
        }
      ],
      "name": "balanceOfItems",
      "outputs": [
        {
          "internalType": "uint256",
          "name": "",
          "type": "uint256"
        }
      ],
      "stateMutability": "view",
      "type": "function",
      "constant": true
    },
    {
      "inputs": [
        {
          "internalType": "uint256",
          "name": "marketId",
          "type": "uint256"
        },
        {
          "internalType": "uint256",
          "name": "itemId",
          "type": "uint256"
        }
      ],
      "name": "getItemOwner",
      "outputs": [
        {
          "internalType": "address",
          "name": "",
          "type": "address"
        }
      ],
      "stateMutability": "view",
      "type": "function",
      "constant": true
    },
    {
      "inputs": [
        {
          "internalType": "uint256",
          "name": "marketId",
          "type": "uint256"
        },
        {
          "internalType": "uint256",
          "name": "itemId",
          "type": "uint256"
        }
      ],
      "name": "isItemOwner",
      "outputs": [
        {
          "internalType": "bool",
          "name": "",
          "type": "bool"
        }
      ],
      "stateMutability": "view",
      "type": "function",
      "constant": true
    },
    {
      "inputs": [
        {
          "internalType": "uint256",
          "name": "marketId",
          "type": "uint256"
        },
        {
          "internalType": "uint256",
          "name": "typeId",
          "type": "uint256"
        }
      ],
      "name": "itemTypeExist",
      "outputs": [
        {
          "internalType": "bool",
          "name": "",
          "type": "bool"
        }
      ],
      "stateMutability": "view",
      "type": "function",
      "constant": true
    },
    {
      "inputs": [
        {
          "internalType": "uint256",
          "name": "marketId",
          "type": "uint256"
        },
        {
          "internalType": "uint256",
          "name": "itemId",
          "type": "uint256"
        }
      ],
      "name": "itemExist",
      "outputs": [
        {
          "internalType": "bool",
          "name": "",
          "type": "bool"
        }
      ],
      "stateMutability": "view",
      "type": "function",
      "constant": true
    }
  ],
  "bytecode": "0x608060405260006100146100b760201b60201c565b9050806000806101000a81548173ffffffffffffffffffffffffffffffffffffffff021916908373ffffffffffffffffffffffffffffffffffffffff1602179055508073ffffffffffffffffffffffffffffffffffffffff16600073ffffffffffffffffffffffffffffffffffffffff167f8be0079c531659141344cd1fd0a4f28419497f9722a3daafe3b4186f6b6457e060405160405180910390a3506100bf565b600033905090565b61372980620000cf6000396000f3fe6080604052600436106101bb5760003560e01c80638da5cb5b116100ec578063bb6b53bf1161008a578063f2fde38b11610064578063f2fde38b14610cde578063f373f04814610d2f578063fc3ff78014610d88578063fcc08cd414610df7576101c2565b8063bb6b53bf14610af9578063bfacba3d14610b4c578063cf30f56f14610c00576101c2565b8063a84fc485116100c6578063a84fc4851461088c578063ad661efe146108e9578063adae08dd146109ec578063b1283e7714610a45576101c2565b80638da5cb5b146107a15780638f32d59b146107f8578063a4a12e7414610827576101c2565b806363a24411116101595780637cfc1818116101335780637cfc1818146106155780638a4021bd146106705780638bce7c30146106c95780638be527021461074e576101c2565b806363a24411146105325780636e7c1705146105a1578063715018a6146105fe576101c2565b80633b64a7b7116101955780633b64a7b71461035f5780633ccfd60b146103c45780633d369029146103db57806354888f5514610456576101c2565b806307309846146101c457806316090962146101ff578063380cb76e1461025c576101c2565b366101c257005b005b3480156101d057600080fd5b506101fd600480360360208110156101e757600080fd5b8101908080359060200190929190505050610e7c565b005b34801561020b57600080fd5b506102426004803603604081101561022257600080fd5b8101908080359060200190929190803590602001909291905050506110f9565b604051808215151515815260200191505060405180910390f35b34801561026857600080fd5b5061029f6004803603604081101561027f57600080fd5b81019080803590602001909291908035906020019092919050505061112d565b6040518080602001898152602001888152602001871515151581526020018615151515815260200185151515158152602001841515151581526020018315151515815260200182810382528a818151815260200191508051906020019080838360005b8381101561031d578082015181840152602081019050610302565b50505050905090810190601f16801561034a5780820380516001836020036101000a031916815260200191505b50995050505050505050505060405180910390f35b34801561036b57600080fd5b506103c26004803603606081101561038257600080fd5b810190808035906020019092919080359060200190929190803573ffffffffffffffffffffffffffffffffffffffff169060200190929190505050611365565b005b3480156103d057600080fd5b506103d9611546565b005b3480156103e757600080fd5b50610414600480360360208110156103fe57600080fd5b8101908080359060200190929190505050611616565b604051808273ffffffffffffffffffffffffffffffffffffffff1673ffffffffffffffffffffffffffffffffffffffff16815260200191505060405180910390f35b34801561046257600080fd5b5061051c6004803603602081101561047957600080fd5b810190808035906020019064010000000081111561049657600080fd5b8201836020820111156104a857600080fd5b803590602001918460018302840111640100000000831117156104ca57600080fd5b91908080601f016020809104026020016040519081016040528093929190818152602001838380828437600081840152601f19601f8201169050808301925050505050505091929192905050506116b1565b6040518082815260200191505060405180910390f35b34801561053e57600080fd5b5061058b6004803603604081101561055557600080fd5b8101908080359060200190929190803573ffffffffffffffffffffffffffffffffffffffff16906020019092919050505061180a565b6040518082815260200191505060405180910390f35b3480156105ad57600080fd5b506105e4600480360360408110156105c457600080fd5b810190808035906020019092919080359060200190929190505050611835565b604051808215151515815260200191505060405180910390f35b34801561060a57600080fd5b50610613611869565b005b34801561062157600080fd5b5061066e6004803603604081101561063857600080fd5b8101908080359060200190929190803573ffffffffffffffffffffffffffffffffffffffff1690602001909291905050506119a2565b005b34801561067c57600080fd5b506106b36004803603604081101561069357600080fd5b810190808035906020019092919080359060200190929190505050611d0a565b6040518082815260200191505060405180910390f35b3480156106d557600080fd5b5061070c600480360360408110156106ec57600080fd5b810190808035906020019092919080359060200190929190505050611d3e565b604051808273ffffffffffffffffffffffffffffffffffffffff1673ffffffffffffffffffffffffffffffffffffffff16815260200191505060405180910390f35b34801561075a57600080fd5b506107876004803603602081101561077157600080fd5b8101908080359060200190929190505050611d80565b604051808215151515815260200191505060405180910390f35b3480156107ad57600080fd5b506107b6611d91565b604051808273ffffffffffffffffffffffffffffffffffffffff1673ffffffffffffffffffffffffffffffffffffffff16815260200191505060405180910390f35b34801561080457600080fd5b5061080d611dba565b604051808215151515815260200191505060405180910390f35b34801561083357600080fd5b506108766004803603602081101561084a57600080fd5b81019080803573ffffffffffffffffffffffffffffffffffffffff169060200190929190505050611e18565b6040518082815260200191505060405180910390f35b34801561089857600080fd5b506108cf600480360360408110156108af57600080fd5b810190808035906020019092919080359060200190929190505050611e68565b604051808215151515815260200191505060405180910390f35b3480156108f557600080fd5b5061092c6004803603604081101561090c57600080fd5b810190808035906020019092919080359060200190929190505050611f44565b6040518080602001898152602001888152602001871515151581526020018615151515815260200185151515158152602001841515151581526020018315151515815260200182810382528a818151815260200191508051906020019080838360005b838110156109aa57808201518184015260208101905061098f565b50505050905090810190601f1680156109d75780820380516001836020036101000a031916815260200191505b50995050505050505050505060405180910390f35b3480156109f857600080fd5b50610a2f60048036036040811015610a0f57600080fd5b81019080803590602001909291908035906020019092919050505061207f565b6040518082815260200191505060405180910390f35b348015610a5157600080fd5b50610a7e60048036036020811015610a6857600080fd5b8101908080359060200190929190505050612248565b6040518080602001828103825283818151815260200191508051906020019080838360005b83811015610abe578082015181840152602081019050610aa3565b50505050905090810190601f168015610aeb5780820380516001836020036101000a031916815260200191505b509250505060405180910390f35b348015610b0557600080fd5b50610b3260048036036020811015610b1c57600080fd5b8101908080359060200190929190505050612307565b604051808215151515815260200191505060405180910390f35b348015610b5857600080fd5b50610b8560048036036020811015610b6f57600080fd5b81019080803590602001909291905050506123d0565b6040518080602001828103825283818151815260200191508051906020019080838360005b83811015610bc5578082015181840152602081019050610baa565b50505050905090810190601f168015610bf25780820380516001836020036101000a031916815260200191505b509250505060405180910390f35b348015610c0c57600080fd5b50610cc8600480360360e0811015610c2357600080fd5b810190808035906020019092919080359060200190640100000000811115610c4a57600080fd5b820183602082011115610c5c57600080fd5b80359060200191846001830284011164010000000083111715610c7e57600080fd5b9091929391929390803590602001909291908035151590602001909291908035151590602001909291908035151590602001909291908035151590602001909291905050506124f0565b6040518082815260200191505060405180910390f35b348015610cea57600080fd5b50610d2d60048036036020811015610d0157600080fd5b81019080803573ffffffffffffffffffffffffffffffffffffffff169060200190929190505050612849565b005b348015610d3b57600080fd5b50610d7260048036036040811015610d5257600080fd5b8101908080359060200190929190803590602001909291905050506128cf565b6040518082815260200191505060405180910390f35b348015610d9457600080fd5b50610de160048036036040811015610dab57600080fd5b8101908080359060200190929190803573ffffffffffffffffffffffffffffffffffffffff169060200190929190505050612989565b6040518082815260200191505060405180910390f35b348015610e0357600080fd5b50610e3a60048036036040811015610e1a57600080fd5b810190808035906020019092919080359060200190929190505050612ace565b604051808273ffffffffffffffffffffffffffffffffffffffff1673ffffffffffffffffffffffffffffffffffffffff16815260200191505060405180910390f35b80610e8681611d80565b610ef8576040517f08c379a00000000000000000000000000000000000000000000000000000000081526004018080602001828103825260158152602001807f4d61726b657420646f6573206e6f74206578697374000000000000000000000081525060200191505060405180910390fd5b3373ffffffffffffffffffffffffffffffffffffffff166002600083815260200190815260200160002060009054906101000a900473ffffffffffffffffffffffffffffffffffffffff1673ffffffffffffffffffffffffffffffffffffffff1614610fcc576040517f08c379a00000000000000000000000000000000000000000000000000000000081526004018080602001828103825260178152602001807f43616c6c6572206973206e6f7420746865206f776e657200000000000000000081525060200191505060405180910390fd5b600073ffffffffffffffffffffffffffffffffffffffff166002600084815260200190815260200160002060009054906101000a900473ffffffffffffffffffffffffffffffffffffffff1673ffffffffffffffffffffffffffffffffffffffff16837f2db5f9b069d085fba50688059d869a45ac805a9f56fe633ca94e0c306f25f30560405160405180910390a46110a2600360003373ffffffffffffffffffffffffffffffffffffffff1673ffffffffffffffffffffffffffffffffffffffff168152602001908152602001600020612b7c565b60006002600084815260200190815260200160002060006101000a81548173ffffffffffffffffffffffffffffffffffffffff021916908373ffffffffffffffffffffffffffffffffffffffff1602179055505050565b600061110483611d80565b80156111255750816004600085815260200190815260200160002080549050115b905092915050565b60606000806000806000806000898961114682826110f9565b61119b576040517f08c379a000000000000000000000000000000000000000000000000000000000815260040180806020018281038252602a8152602001806135fc602a913960400191505060405180910390fd5b6111a3613465565b600460008e81526020019081526020016000208c815481106111c157fe5b906000526020600020906004020160405180610100016040529081600082018054600181600116156101000203166002900480601f0160208091040260200160405190810160405280929190818152602001828054600181600116156101000203166002900480156112745780601f1061124957610100808354040283529160200191611274565b820191906000526020600020905b81548152906001019060200180831161125757829003601f168201915b5050505050815260200160018201548152602001600282015481526020016003820160009054906101000a900460ff161515151581526020016003820160019054906101000a900460ff161515151581526020016003820160029054906101000a900460ff161515151581526020016003820160039054906101000a900460ff161515151581526020016003820160049054906101000a900460ff1615151515815250509050806000015181602001518260400151836060015184608001518560a001518660c001518760e001518797509a509a509a509a509a509a509a509a505050509295985092959890939650565b82826113718282611835565b6113c6576040517f08c379a000000000000000000000000000000000000000000000000000000000815260040180806020018281038252602581526020018061369b6025913960400191505060405180910390fd5b3373ffffffffffffffffffffffffffffffffffffffff1660076000848152602001908152602001600020600083815260200190815260200160002060009054906101000a900473ffffffffffffffffffffffffffffffffffffffff1673ffffffffffffffffffffffffffffffffffffffff161461148e576040517f08c379a00000000000000000000000000000000000000000000000000000000081526004018080602001828103825260218152602001806135ba6021913960400191505060405180910390fd5b82600073ffffffffffffffffffffffffffffffffffffffff168173ffffffffffffffffffffffffffffffffffffffff161415611532576040517f08c379a00000000000000000000000000000000000000000000000000000000081526004018080602001828103825260208152602001807f436865636b4164647265737320697320746865207a65726f206164647265737381525060200191505060405180910390fd5b61153e86863387612b9f565b505050505050565b61154e611dba565b6115c0576040517f08c379a00000000000000000000000000000000000000000000000000000000081526004018080602001828103825260208152602001807f4f776e61626c653a2063616c6c6572206973206e6f7420746865206f776e657281525060200191505060405180910390fd5b60006115ca611d91565b90508073ffffffffffffffffffffffffffffffffffffffff166108fc479081150290604051600060405180830381858888f19350505050158015611612573d6000803e3d6000fd5b5050565b600061162182611d80565b611676576040517f08c379a00000000000000000000000000000000000000000000000000000000081526004018080602001828103825260218152602001806135db6021913960400191505060405180910390fd5b6002600083815260200190815260200160002060009054906101000a900473ffffffffffffffffffffffffffffffffffffffff169050919050565b600060016040518060200160405280848152509080600181540180825580915050600190039060005260206000200160009091909190915060008201518160000190805190602001906117059291906134b4565b505050600061172260018080549050612f6f90919063ffffffff16565b9050336002600083815260200190815260200160002060006101000a81548173ffffffffffffffffffffffffffffffffffffffff021916908373ffffffffffffffffffffffffffffffffffffffff1602179055506117bd600360003373ffffffffffffffffffffffffffffffffffffffff1673ffffffffffffffffffffffffffffffffffffffff168152602001908152602001600020612fb9565b3373ffffffffffffffffffffffffffffffffffffffff16817fd301e501188d220cc44d05fa5ee3c14454746932c7d6598933e7fddc78bea7f060405160405180910390a380915050919050565b6006602052816000526040600020602052806000526040600020600091509150508060000154905081565b600061184083611d80565b80156118615750816005600085815260200190815260200160002080549050115b905092915050565b611871611dba565b6118e3576040517f08c379a00000000000000000000000000000000000000000000000000000000081526004018080602001828103825260208152602001807f4f776e61626c653a2063616c6c6572206973206e6f7420746865206f776e657281525060200191505060405180910390fd5b600073ffffffffffffffffffffffffffffffffffffffff166000809054906101000a900473ffffffffffffffffffffffffffffffffffffffff1673ffffffffffffffffffffffffffffffffffffffff167f8be0079c531659141344cd1fd0a4f28419497f9722a3daafe3b4186f6b6457e060405160405180910390a360008060006101000a81548173ffffffffffffffffffffffffffffffffffffffff021916908373ffffffffffffffffffffffffffffffffffffffff160217905550565b816119ac81611d80565b611a1e576040517f08c379a00000000000000000000000000000000000000000000000000000000081526004018080602001828103825260158152602001807f4d61726b657420646f6573206e6f74206578697374000000000000000000000081525060200191505060405180910390fd5b3373ffffffffffffffffffffffffffffffffffffffff166002600083815260200190815260200160002060009054906101000a900473ffffffffffffffffffffffffffffffffffffffff1673ffffffffffffffffffffffffffffffffffffffff1614611af2576040517f08c379a00000000000000000000000000000000000000000000000000000000081526004018080602001828103825260178152602001807f43616c6c6572206973206e6f7420746865206f776e657200000000000000000081525060200191505060405180910390fd5b81600073ffffffffffffffffffffffffffffffffffffffff168173ffffffffffffffffffffffffffffffffffffffff161415611b96576040517f08c379a00000000000000000000000000000000000000000000000000000000081526004018080602001828103825260208152602001807f436865636b4164647265737320697320746865207a65726f206164647265737381525060200191505060405180910390fd5b8273ffffffffffffffffffffffffffffffffffffffff166002600086815260200190815260200160002060009054906101000a900473ffffffffffffffffffffffffffffffffffffffff1673ffffffffffffffffffffffffffffffffffffffff16857f2db5f9b069d085fba50688059d869a45ac805a9f56fe633ca94e0c306f25f30560405160405180910390a4826002600086815260200190815260200160002060006101000a81548173ffffffffffffffffffffffffffffffffffffffff021916908373ffffffffffffffffffffffffffffffffffffffff160217905550611cbd600360003373ffffffffffffffffffffffffffffffffffffffff1673ffffffffffffffffffffffffffffffffffffffff168152602001908152602001600020612b7c565b611d04600360008573ffffffffffffffffffffffffffffffffffffffff1673ffffffffffffffffffffffffffffffffffffffff168152602001908152602001600020612fb9565b50505050565b60056020528160005260406000208181548110611d2357fe5b90600052602060002001600091509150508060000154905081565b60076020528160005260406000206020528060005260406000206000915091509054906101000a900473ffffffffffffffffffffffffffffffffffffffff1681565b600081600180549050119050919050565b60008060009054906101000a900473ffffffffffffffffffffffffffffffffffffffff16905090565b60008060009054906101000a900473ffffffffffffffffffffffffffffffffffffffff1673ffffffffffffffffffffffffffffffffffffffff16611dfc612fcf565b73ffffffffffffffffffffffffffffffffffffffff1614905090565b6000611e61600360008473ffffffffffffffffffffffffffffffffffffffff1673ffffffffffffffffffffffffffffffffffffffff168152602001908152602001600020612fd7565b9050919050565b6000611e748383611835565b611ec9576040517f08c379a000000000000000000000000000000000000000000000000000000000815260040180806020018281038252602581526020018061369b6025913960400191505060405180910390fd5b3373ffffffffffffffffffffffffffffffffffffffff1660076000858152602001908152602001600020600084815260200190815260200160002060009054906101000a900473ffffffffffffffffffffffffffffffffffffffff1673ffffffffffffffffffffffffffffffffffffffff1614905092915050565b60046020528160005260406000208181548110611f5d57fe5b906000526020600020906004020160009150915050806000018054600181600116156101000203166002900480601f01602080910402602001604051908101604052809291908181526020018280546001816001161561010002031660029004801561200a5780601f10611fdf5761010080835404028352916020019161200a565b820191906000526020600020905b815481529060010190602001808311611fed57829003601f168201915b5050505050908060010154908060020154908060030160009054906101000a900460ff16908060030160019054906101000a900460ff16908060030160029054906101000a900460ff16908060030160039054906101000a900460ff16908060030160049054906101000a900460ff16905088565b60008261208b81611d80565b6120fd576040517f08c379a00000000000000000000000000000000000000000000000000000000081526004018080602001828103825260158152602001807f4d61726b657420646f6573206e6f74206578697374000000000000000000000081525060200191505060405180910390fd5b3373ffffffffffffffffffffffffffffffffffffffff166002600083815260200190815260200160002060009054906101000a900473ffffffffffffffffffffffffffffffffffffffff1673ffffffffffffffffffffffffffffffffffffffff16146121d1576040517f08c379a00000000000000000000000000000000000000000000000000000000081526004018080602001828103825260178152602001807f43616c6c6572206973206e6f7420746865206f776e657200000000000000000081525060200191505060405180910390fd5b83836121dd82826110f9565b612232576040517f08c379a000000000000000000000000000000000000000000000000000000000815260040180806020018281038252602a8152602001806135fc602a913960400191505060405180910390fd5b61223d868633612fe5565b935050505092915050565b6001818154811061225557fe5b90600052602060002001600091509050806000018054600181600116156101000203166002900480601f0160208091040260200160405190810160405280929190818152602001828054600181600116156101000203166002900480156122fd5780601f106122d2576101008083540402835291602001916122fd565b820191906000526020600020905b8154815290600101906020018083116122e057829003601f168201915b5050505050905081565b600061231282611d80565b612367576040517f08c379a00000000000000000000000000000000000000000000000000000000081526004018080602001828103825260218152602001806135db6021913960400191505060405180910390fd5b3373ffffffffffffffffffffffffffffffffffffffff166002600084815260200190815260200160002060009054906101000a900473ffffffffffffffffffffffffffffffffffffffff1673ffffffffffffffffffffffffffffffffffffffff16149050919050565b60606123db82611d80565b612430576040517f08c379a00000000000000000000000000000000000000000000000000000000081526004018080602001828103825260218152602001806135db6021913960400191505060405180910390fd5b60006001838154811061243f57fe5b906000526020600020019050806000018054600181600116156101000203166002900480601f0160208091040260200160405190810160405280929190818152602001828054600181600116156101000203166002900480156124e35780601f106124b8576101008083540402835291602001916124e3565b820191906000526020600020905b8154815290600101906020018083116124c657829003601f168201915b5050505050915050919050565b6000886124fc81611d80565b61256e576040517f08c379a00000000000000000000000000000000000000000000000000000000081526004018080602001828103825260158152602001807f4d61726b657420646f6573206e6f74206578697374000000000000000000000081525060200191505060405180910390fd5b3373ffffffffffffffffffffffffffffffffffffffff166002600083815260200190815260200160002060009054906101000a900473ffffffffffffffffffffffffffffffffffffffff1673ffffffffffffffffffffffffffffffffffffffff1614612642576040517f08c379a00000000000000000000000000000000000000000000000000000000081526004018080602001828103825260178152602001807f43616c6c6572206973206e6f7420746865206f776e657200000000000000000081525060200191505060405180910390fd5b600460008b81526020019081526020016000206040518061010001604052808b8b8080601f016020809104026020016040519081016040528093929190818152602001838380828437600081840152601f19601f82011690508083019250505050505050815260200189815260200189815260200160008a1115158152602001881515815260200187151581526020018615158152602001851515815250908060018154018082558091505060019003906000526020600020906004020160009091909190915060008201518160000190805190602001906127259291906134b4565b50602082015181600101556040820151816002015560608201518160030160006101000a81548160ff02191690831515021790555060808201518160030160016101000a81548160ff02191690831515021790555060a08201518160030160026101000a81548160ff02191690831515021790555060c08201518160030160036101000a81548160ff02191690831515021790555060e08201518160030160046101000a81548160ff021916908315150217905550505060006128086001600460008e815260200190815260200160002080549050612f6f90919063ffffffff16565b9050808b7f7934e0f5d948c4a79a3febe9190e48f7c9017e7655c1f47105f8478ef984102a60405160405180910390a3809250505098975050505050505050565b612851611dba565b6128c3576040517f08c379a00000000000000000000000000000000000000000000000000000000081526004018080602001828103825260208152602001807f4f776e61626c653a2063616c6c6572206973206e6f7420746865206f776e657281525060200191505060405180910390fd5b6128cc816131f4565b50565b600082826128dd8282611835565b612932576040517f08c379a000000000000000000000000000000000000000000000000000000000815260040180806020018281038252602581526020018061369b6025913960400191505060405180910390fd5b61293a613534565b60056000878152602001908152602001600020858154811061295857fe5b9060005260206000200160405180602001604052908160008201548152505090508060000151935050505092915050565b60008073ffffffffffffffffffffffffffffffffffffffff168273ffffffffffffffffffffffffffffffffffffffff161415612a10576040517f08c379a00000000000000000000000000000000000000000000000000000000081526004018080602001828103825260428152602001806136266042913960600191505060405180910390fd5b612a1983611d80565b612a6e576040517f08c379a000000000000000000000000000000000000000000000000000000000815260040180806020018281038252602781526020018061356d6027913960400191505060405180910390fd5b612ac66006600085815260200190815260200160002060008473ffffffffffffffffffffffffffffffffffffffff1673ffffffffffffffffffffffffffffffffffffffff168152602001908152602001600020612fd7565b905092915050565b6000612ada8383611835565b612b2f576040517f08c379a000000000000000000000000000000000000000000000000000000000815260040180806020018281038252602a8152602001806135fc602a913960400191505060405180910390fd5b60076000848152602001908152602001600020600083815260200190815260200160002060009054906101000a900473ffffffffffffffffffffffffffffffffffffffff16905092915050565b612b9460018260000154612f6f90919063ffffffff16565b816000018190555050565b80600073ffffffffffffffffffffffffffffffffffffffff168173ffffffffffffffffffffffffffffffffffffffff161415612c43576040517f08c379a00000000000000000000000000000000000000000000000000000000081526004018080602001828103825260208152602001807f436865636b4164647265737320697320746865207a65726f206164647265737381525060200191505060405180910390fd5b8173ffffffffffffffffffffffffffffffffffffffff168373ffffffffffffffffffffffffffffffffffffffff161415612cc8576040517f08c379a00000000000000000000000000000000000000000000000000000000081526004018080602001828103825260338152602001806136686033913960400191505060405180910390fd5b612cd28585611835565b612d27576040517f08c379a000000000000000000000000000000000000000000000000000000000815260040180806020018281038252602581526020018061369b6025913960400191505060405180910390fd5b8273ffffffffffffffffffffffffffffffffffffffff1660076000878152602001908152602001600020600086815260200190815260200160002060009054906101000a900473ffffffffffffffffffffffffffffffffffffffff1673ffffffffffffffffffffffffffffffffffffffff1614612def576040517f08c379a00000000000000000000000000000000000000000000000000000000081526004018080602001828103825260218152602001806135ba6021913960400191505060405180910390fd5b612e476006600087815260200190815260200160002060008573ffffffffffffffffffffffffffffffffffffffff1673ffffffffffffffffffffffffffffffffffffffff168152602001908152602001600020612b7c565b612e9f6006600087815260200190815260200160002060008473ffffffffffffffffffffffffffffffffffffffff1673ffffffffffffffffffffffffffffffffffffffff168152602001908152602001600020612fb9565b8160076000878152602001908152602001600020600086815260200190815260200160002060006101000a81548173ffffffffffffffffffffffffffffffffffffffff021916908373ffffffffffffffffffffffffffffffffffffffff1602179055508173ffffffffffffffffffffffffffffffffffffffff168373ffffffffffffffffffffffffffffffffffffffff16867f297028ce8af626c92b0bd8baa9fb2ab9a78677c4a12fac9d68113eb9d27208c7876040518082815260200191505060405180910390a45050505050565b6000612fb183836040518060400160405280601e81526020017f536166654d6174683a207375627472616374696f6e206f766572666c6f770000815250613338565b905092915050565b6001816000016000828254019250508190555050565b600033905090565b600081600001549050919050565b60008060046000868152602001908152602001600020848154811061300657fe5b9060005260206000209060040201905061301f816133f8565b613074576040517f08c379a00000000000000000000000000000000000000000000000000000000081526004018080602001828103825260348152602001806136c06034913960400191505060405180910390fd5b600560008681526020019081526020016000206040518060200160405280868152509080600181540180825580915050600190039060005260206000200160009091909190915060008201518160000155505060006130f360016005600089815260200190815260200160002080549050612f6f90919063ffffffff16565b905061314d6006600088815260200190815260200160002060008673ffffffffffffffffffffffffffffffffffffffff1673ffffffffffffffffffffffffffffffffffffffff168152602001908152602001600020612fb9565b8360076000888152602001908152602001600020600083815260200190815260200160002060006101000a81548173ffffffffffffffffffffffffffffffffffffffff021916908373ffffffffffffffffffffffffffffffffffffffff1602179055506131b982613423565b8085877fe4c069d6d656e522b253bfc665628b0926e17c426d278d9025aa33d46a53802060405160405180910390a480925050509392505050565b600073ffffffffffffffffffffffffffffffffffffffff168173ffffffffffffffffffffffffffffffffffffffff16141561327a576040517f08c379a00000000000000000000000000000000000000000000000000000000081526004018080602001828103825260268152602001806135946026913960400191505060405180910390fd5b8073ffffffffffffffffffffffffffffffffffffffff166000809054906101000a900473ffffffffffffffffffffffffffffffffffffffff1673ffffffffffffffffffffffffffffffffffffffff167f8be0079c531659141344cd1fd0a4f28419497f9722a3daafe3b4186f6b6457e060405160405180910390a3806000806101000a81548173ffffffffffffffffffffffffffffffffffffffff021916908373ffffffffffffffffffffffffffffffffffffffff16021790555050565b60008383111582906133e5576040517f08c379a00000000000000000000000000000000000000000000000000000000081526004018080602001828103825283818151815260200191508051906020019080838360005b838110156133aa57808201518184015260208101905061338f565b50505050905090810190601f1680156133d75780820380516001836020036101000a031916815260200191505b509250505060405180910390fd5b5060008385039050809150509392505050565b60008160030160009054906101000a900460ff16158061341c575060008260010154115b9050919050565b8060030160009054906101000a900460ff168015613445575060008160010154115b156134625761345981600101546001612f6f565b81600101819055505b50565b6040518061010001604052806060815260200160008152602001600081526020016000151581526020016000151581526020016000151581526020016000151581526020016000151581525090565b828054600181600116156101000203166002900490600052602060002090601f016020900481019282601f106134f557805160ff1916838001178555613523565b82800160010185558215613523579182015b82811115613522578251825591602001919060010190613507565b5b5090506135309190613547565b5090565b6040518060200160405280600081525090565b61356991905b8082111561356557600081600090555060010161354d565b5090565b9056fe4d61726b6574506f6f6c5f4974656d733a204d61726b657420646f6573206e6f742065786973744f776e61626c653a206e6577206f776e657220697320746865207a65726f20616464726573734d61726b6574506f6f6c5f4974656d733a204974206973206e6f74206f776e65724d61726b6574506f6f6c3a204d61726b657420646f6573206e6f742065786973744d61726b6574506f6f6c5f4974656d733a204974656d205479706520646f6573206e6f742065786973744d61726b6574506f6f6c5f4974656d733a20417474656d707420746f20636865636b207468652062616c616e636520617420746865207a65726f20616464726573734d61726b6574506f6f6c5f4974656d733a202766726f6d27206164647265737320657175616c2027746f2720616464726573734d61726b6574506f6f6c5f4974656d733a204974656d20646f6573206e6f742065786973744d61726b6574506f6f6c5f4974656d733a2063616e6e6f742063726561746520616e206974656d206f6620746869732074797065a2646970667358221220bd591e22f32e8d09922dd37affae6a0a23836513cc524a77f00a1d84a10d0f2264736f6c63430006030033",
  "source": "pragma solidity >=0.6.0;\r\n\r\nimport \"@openzeppelin/contracts/drafts/Counters.sol\";\r\nimport \"../library/Items.sol\";\r\nimport \"./MarketPool.sol\";\r\n\r\ncontract MarketPool_Items is MarketPool {\r\n    using SafeMath for uint256;\r\n    using Counters for Counters.Counter;\r\n    using Items for Items.ItemType;\r\n    using Items for Items.Item;\r\n\r\n    event ItemTypeCreated(uint256 indexed marketId, uint256 indexed itemTypeId);\r\n    event ItemCreated(\r\n        uint256 indexed marketId,\r\n        uint256 indexed itemTypeId,\r\n        uint256 indexed itemId\r\n    );\r\n    event ItemOwnershipTransferred(\r\n        uint256 indexed marketId,\r\n        uint256 itemId,\r\n        address indexed previousOwner,\r\n        address indexed newOwner\r\n    );\r\n\r\n    // ID     \r\n    mapping(uint256 => Items.ItemType[]) public marketToItemTypes;\r\n\r\n    // ID    .    .\r\n    mapping(uint256 => Items.Item[]) public marketToItems;\r\n\r\n    // ID      -    \r\n    mapping(uint256 => mapping(address => Counters.Counter)) public marketToUsersToItemsCount;\r\n\r\n    // ID   ID    \r\n    mapping(uint256 => mapping(uint256 => address)) public marketToItemToOwner;\r\n\r\n    /**\r\n     * @notice Create ItemType for selected Market.\r\n     * @return id of the created ItemType\r\n     */\r\n    function createItemType(\r\n        uint256 marketId,\r\n        string calldata name,\r\n        uint256 totalSupply,\r\n        bool allowSale,\r\n        bool allowAuction,\r\n        bool allowRent,\r\n        bool allowLootbox\r\n    ) external onlyMarketOwner(marketId) returns (uint256) {\r\n        marketToItemTypes[marketId].push(\r\n            Items.ItemType(\r\n                name,\r\n                totalSupply,\r\n                totalSupply,\r\n                totalSupply > 0,\r\n                allowSale,\r\n                allowAuction,\r\n                allowRent,\r\n                allowLootbox\r\n            )\r\n        );\r\n        uint256 itemTypeId = marketToItemTypes[marketId].length.sub(1);\r\n        emit ItemTypeCreated(marketId, itemTypeId);\r\n        return itemTypeId;\r\n    }\r\n\r\n    /**\r\n     * @notice Can call only owner. Create Item for selected Market and Type. Owner of item will be owner of market\r\n     * @return id of the created item\r\n     */\r\n    function createItem(uint256 marketId, uint256 typeId)\r\n        public\r\n        onlyMarketOwner(marketId)\r\n        onlyItemTypeExist(marketId, typeId)\r\n        returns (uint256)\r\n    {\r\n        return _createItem(marketId, typeId, msg.sender);\r\n    }\r\n\r\n    /**\r\n     * @notice Can call only item owner. Change item owner to ('to')\r\n     */\r\n    function transferItemOwnership(uint256 marketId, uint256 itemId, address to)\r\n        public\r\n        onlyItemOwner(marketId, itemId)\r\n        notZeroAddress(to)\r\n    {\r\n        _transferItemOwnership(marketId, itemId, msg.sender, to);\r\n    }\r\n\r\n\r\n\r\n\r\n    /**\r\n     * @notice Return data about item type\r\n     */\r\n    function getItemTypeData(uint256 marketId, uint256 typeId)\r\n        public\r\n        view\r\n        onlyItemTypeExist(marketId, typeId)\r\n        returns (\r\n            string memory name,\r\n            uint256 remainingSupply,\r\n            uint256 totalSupply,\r\n            bool isFinal,\r\n            bool allowSale,\r\n            bool allowAuction,\r\n            bool allowRent,\r\n            bool allowLootbox\r\n        )\r\n    {\r\n        Items.ItemType memory itemType = marketToItemTypes[marketId][typeId];\r\n        return (\r\n            itemType.name,\r\n            itemType.remainingSupply,\r\n            itemType.totalSupply,\r\n            itemType.isFinal,\r\n            itemType.allowSale,\r\n            itemType.allowAuction,\r\n            itemType.allowRent,\r\n            itemType.allowLootbox\r\n        );\r\n    }\r\n\r\n    /**\r\n     * @notice Return data about item\r\n     */\r\n    function getItemData(uint256 marketId, uint256 itemId)\r\n        public\r\n        view\r\n        onlyItemExist(marketId, itemId)\r\n        returns (uint256 itemTypeId)\r\n    {\r\n        Items.Item memory item = marketToItems[marketId][itemId];\r\n        return (item.typeId);\r\n    }\r\n\r\n    function balanceOfItems(uint256 marketId, address itemsOwner)\r\n        public\r\n        view\r\n        returns (uint256)\r\n    {\r\n        require(itemsOwner != address(0), \"MarketPool_Items: Attempt to check the balance at the zero address\");\r\n        require(marketExist(marketId), \"MarketPool_Items: Market does not exist\");\r\n\r\n        return marketToUsersToItemsCount[marketId][itemsOwner].current();\r\n    }\r\n\r\n    function getItemOwner(uint256 marketId, uint256 itemId)\r\n        public\r\n        view\r\n        returns (address)\r\n    {\r\n        require(itemExist(marketId, itemId), \"MarketPool_Items: Item Type does not exist\");\r\n\r\n        return marketToItemToOwner[marketId][itemId];\r\n    }\r\n\r\n    function isItemOwner(uint256 marketId, uint256 itemId)\r\n        public\r\n        view\r\n        returns (bool)\r\n    {\r\n        require(itemExist(marketId, itemId), \"MarketPool_Items: Item does not exist\");\r\n\r\n        return marketToItemToOwner[marketId][itemId] == msg.sender;\r\n    }\r\n\r\n    function itemTypeExist(uint256 marketId, uint256 typeId)\r\n        public\r\n        view\r\n        returns (bool)\r\n    {\r\n        return\r\n            marketExist(marketId) &&\r\n            marketToItemTypes[marketId].length > typeId;\r\n    }\r\n\r\n    function itemExist(uint256 marketId, uint256 itemId)\r\n        public\r\n        view\r\n        returns (bool)\r\n    {\r\n        return marketExist(marketId) && marketToItems[marketId].length > itemId;\r\n    }\r\n\r\n\r\n\r\n\r\n    function _transferItemOwnership(\r\n        uint256 marketId,\r\n        uint256 itemId,\r\n        address from,\r\n        address to\r\n    ) internal notZeroAddress(to) {\r\n        require(from != to, \"MarketPool_Items: 'from' address equal 'to' address\");\r\n        require(itemExist(marketId, itemId), \"MarketPool_Items: Item does not exist\");\r\n        require(marketToItemToOwner[marketId][itemId] == from, \"MarketPool_Items: It is not owner\");\r\n\r\n        marketToUsersToItemsCount[marketId][from].decrement();\r\n        marketToUsersToItemsCount[marketId][to].increment();\r\n        marketToItemToOwner[marketId][itemId] = to;\r\n\r\n        emit ItemOwnershipTransferred(marketId, itemId, from, to);\r\n    }\r\n\r\n    /**\r\n     * @dev Create Item for selected Market and Type. Owner of item will be ('itemOwner')\r\n     * @return id of the created item\r\n     */\r\n    function _createItem(uint256 marketId, uint256 typeId, address newItemOwner)\r\n        internal\r\n        returns (uint256)\r\n    {\r\n        Items.ItemType storage itemType = marketToItemTypes[marketId][typeId];\r\n        require(\r\n            itemType.creatingPossible(),\r\n            \"MarketPool_Items: cannot create an item of this type\"\r\n        );\r\n\r\n        marketToItems[marketId].push(Items.Item(typeId));\r\n        uint256 itemId = marketToItems[marketId].length.sub(1);\r\n        marketToUsersToItemsCount[marketId][newItemOwner].increment();\r\n        marketToItemToOwner[marketId][itemId] = newItemOwner;\r\n\r\n        itemType.recordItemCreated();\r\n\r\n        emit ItemCreated(marketId, typeId, itemId);\r\n        return itemId;\r\n    }\r\n\r\n\r\n\r\n\r\n\r\n    modifier onlyItemTypeExist(uint256 marketId, uint256 itemTypeId) {\r\n        require(\r\n            itemTypeExist(marketId, itemTypeId),\r\n            \"MarketPool_Items: Item Type does not exist\"\r\n        );\r\n        _;\r\n    }\r\n\r\n    modifier onlyItemExist(uint256 marketId, uint256 itemId) {\r\n        require(\r\n            itemExist(marketId, itemId),\r\n            \"MarketPool_Items: Item does not exist\"\r\n        );\r\n        _;\r\n    }\r\n\r\n    modifier onlyItemOwner(uint256 marketId, uint256 itemId) {\r\n        require(\r\n            itemExist(marketId, itemId),\r\n            \"MarketPool_Items: Item does not exist\"\r\n        );\r\n        require(\r\n            marketToItemToOwner[marketId][itemId] == msg.sender,\r\n            \"MarketPool_Items: It is not owner\"\r\n        );\r\n        _;\r\n    }\r\n}\r\n",
  "sourcePath": "E:\\MeineArbeit\\Solidity\\market-pool\\contracts\\MarketPool_Items.sol",
  "compiler": {
    "name": "solc",
    "version": "0.6.3+commit.8dda9521.Emscripten.clang"
  },
  "schemaVersion": "3.0.23",
  "updatedAt": "2020-04-11T15:58:30.054Z",
  "networkType": "ethereum",
  "devdoc": {
    "methods": {
      "createMarket(string)": {
        "params": {
          "name": "The name of marketplace"
        },
        "returns": {
          "_0": "id of the created market"
        }
      },
      "isOwner()": {
        "details": "Returns true if the caller is the current owner."
      },
      "owner()": {
        "details": "Returns the address of the current owner."
      },
      "renounceOwnership()": {
        "details": "Leaves the contract without owner. It will not be possible to call `onlyOwner` functions anymore. Can only be called by the current owner.     * NOTE: Renouncing ownership will leave the contract without an owner, thereby removing any functionality that is only available to the owner."
      },
      "transferOwnership(address)": {
        "details": "Transfers ownership of the contract to a new account (`newOwner`). Can only be called by the current owner."
      }
    }
  },
  "userdoc": {
    "methods": {
      "createItem(uint256,uint256)": {
        "notice": "Can call only owner. Create Item for selected Market and Type. Owner of item will be owner of market"
      },
      "createItemType(uint256,string,uint256,bool,bool,bool,bool)": {
        "notice": "Create ItemType for selected Market."
      },
      "createMarket(string)": {
        "notice": "Create new Market for sender."
      },
      "getItemData(uint256,uint256)": {
        "notice": "Return data about item"
      },
      "getItemTypeData(uint256,uint256)": {
        "notice": "Return data about item type"
      },
      "getMarketData(uint256)": {
        "notice": "Return all data of market by its id"
      },
      "getMarketOwner(uint256)": {
        "notice": "Return addres of market owner"
      },
      "isMarketOwner(uint256)": {
        "notice": "Chech if it is market owner "
      },
      "marketExist(uint256)": {
        "notice": "Check if market exist "
      },
      "renounceMarketOwnership(uint256)": {
        "notice": "Renouncing ownership will leave the contract without an market owner, thereby removing any functionality that is only available to the market owner (e.g. creating new Item Types)."
      },
      "transferItemOwnership(uint256,uint256,address)": {
        "notice": "Can call only item owner. Change item owner to ('to')"
      },
      "transferMarketOwnership(uint256,address)": {
        "notice": "Transfers ownership of the ('marketId') to a new account (`newOwner`)."
      }
    }
  }
}