{
  "contractName": "MarketPool_SaleRelease",
  "abi": [
    {
      "anonymous": false,
      "inputs": [
        {
          "indexed": true,
          "internalType": "uint256",
          "name": "marketId",
          "type": "uint256"
        },
        {
          "indexed": true,
          "internalType": "uint256",
          "name": "itemTypeId",
          "type": "uint256"
        },
        {
          "indexed": true,
          "internalType": "uint256",
          "name": "itemId",
          "type": "uint256"
        }
      ],
      "name": "ItemCreated",
      "type": "event"
    },
    {
      "anonymous": false,
      "inputs": [
        {
          "indexed": true,
          "internalType": "uint256",
          "name": "marketId",
          "type": "uint256"
        },
        {
          "indexed": false,
          "internalType": "uint256",
          "name": "itemId",
          "type": "uint256"
        },
        {
          "indexed": true,
          "internalType": "address",
          "name": "previousOwner",
          "type": "address"
        },
        {
          "indexed": true,
          "internalType": "address",
          "name": "newOwner",
          "type": "address"
        }
      ],
      "name": "ItemOwnershipTransferred",
      "type": "event"
    },
    {
      "anonymous": false,
      "inputs": [
        {
          "indexed": true,
          "internalType": "uint256",
          "name": "marketId",
          "type": "uint256"
        },
        {
          "indexed": true,
          "internalType": "uint256",
          "name": "itemTypeId",
          "type": "uint256"
        }
      ],
      "name": "ItemTypeCreated",
      "type": "event"
    },
    {
      "anonymous": false,
      "inputs": [
        {
          "indexed": true,
          "internalType": "uint256",
          "name": "marketId",
          "type": "uint256"
        }
      ],
      "name": "MarketCreated",
      "type": "event"
    },
    {
      "anonymous": false,
      "inputs": [
        {
          "indexed": true,
          "internalType": "uint256",
          "name": "marketId",
          "type": "uint256"
        },
        {
          "indexed": true,
          "internalType": "address",
          "name": "previousOwner",
          "type": "address"
        },
        {
          "indexed": true,
          "internalType": "address",
          "name": "newOwner",
          "type": "address"
        }
      ],
      "name": "MarketOwnershipTransferred",
      "type": "event"
    },
    {
      "anonymous": false,
      "inputs": [
        {
          "indexed": true,
          "internalType": "address",
          "name": "previousOwner",
          "type": "address"
        },
        {
          "indexed": true,
          "internalType": "address",
          "name": "newOwner",
          "type": "address"
        }
      ],
      "name": "OwnershipTransferred",
      "type": "event"
    },
    {
      "inputs": [
        {
          "internalType": "uint256",
          "name": "marketId",
          "type": "uint256"
        },
        {
          "internalType": "address",
          "name": "itemsOwner",
          "type": "address"
        }
      ],
      "name": "balanceOfItems",
      "outputs": [
        {
          "internalType": "uint256",
          "name": "",
          "type": "uint256"
        }
      ],
      "stateMutability": "view",
      "type": "function"
    },
    {
      "inputs": [
        {
          "internalType": "uint256",
          "name": "marketId",
          "type": "uint256"
        },
        {
          "internalType": "uint256",
          "name": "typeId",
          "type": "uint256"
        }
      ],
      "name": "createItem",
      "outputs": [
        {
          "internalType": "uint256",
          "name": "",
          "type": "uint256"
        }
      ],
      "stateMutability": "nonpayable",
      "type": "function"
    },
    {
      "inputs": [
        {
          "internalType": "uint256",
          "name": "marketId",
          "type": "uint256"
        },
        {
          "internalType": "string",
          "name": "name",
          "type": "string"
        },
        {
          "internalType": "uint256",
          "name": "totalSuply",
          "type": "uint256"
        },
        {
          "internalType": "bool",
          "name": "allowSale",
          "type": "bool"
        },
        {
          "internalType": "bool",
          "name": "allowAuction",
          "type": "bool"
        },
        {
          "internalType": "bool",
          "name": "allowRent",
          "type": "bool"
        },
        {
          "internalType": "bool",
          "name": "allowLootbox",
          "type": "bool"
        }
      ],
      "name": "createItemType",
      "outputs": [
        {
          "internalType": "uint256",
          "name": "",
          "type": "uint256"
        }
      ],
      "stateMutability": "nonpayable",
      "type": "function"
    },
    {
      "inputs": [
        {
          "internalType": "string",
          "name": "name",
          "type": "string"
        }
      ],
      "name": "createMarket",
      "outputs": [
        {
          "internalType": "uint256",
          "name": "",
          "type": "uint256"
        }
      ],
      "stateMutability": "nonpayable",
      "type": "function"
    },
    {
      "inputs": [
        {
          "internalType": "uint256",
          "name": "marketId",
          "type": "uint256"
        },
        {
          "internalType": "uint256",
          "name": "itemId",
          "type": "uint256"
        }
      ],
      "name": "getItemData",
      "outputs": [
        {
          "internalType": "uint256",
          "name": "itemTypeId",
          "type": "uint256"
        }
      ],
      "stateMutability": "view",
      "type": "function"
    },
    {
      "inputs": [
        {
          "internalType": "uint256",
          "name": "marketId",
          "type": "uint256"
        },
        {
          "internalType": "uint256",
          "name": "itemId",
          "type": "uint256"
        }
      ],
      "name": "getItemOwner",
      "outputs": [
        {
          "internalType": "address",
          "name": "",
          "type": "address"
        }
      ],
      "stateMutability": "view",
      "type": "function"
    },
    {
      "inputs": [
        {
          "internalType": "uint256",
          "name": "marketId",
          "type": "uint256"
        },
        {
          "internalType": "uint256",
          "name": "typeId",
          "type": "uint256"
        }
      ],
      "name": "getItemTypeData",
      "outputs": [
        {
          "internalType": "string",
          "name": "name",
          "type": "string"
        },
        {
          "internalType": "uint256",
          "name": "remainingSuply",
          "type": "uint256"
        },
        {
          "internalType": "uint256",
          "name": "totalSuply",
          "type": "uint256"
        },
        {
          "internalType": "bool",
          "name": "allowSale",
          "type": "bool"
        },
        {
          "internalType": "bool",
          "name": "allowAuction",
          "type": "bool"
        },
        {
          "internalType": "bool",
          "name": "allowRent",
          "type": "bool"
        },
        {
          "internalType": "bool",
          "name": "allowLootbox",
          "type": "bool"
        }
      ],
      "stateMutability": "view",
      "type": "function"
    },
    {
      "inputs": [
        {
          "internalType": "uint256",
          "name": "marketId",
          "type": "uint256"
        }
      ],
      "name": "getMarketData",
      "outputs": [
        {
          "internalType": "string",
          "name": "name",
          "type": "string"
        }
      ],
      "stateMutability": "view",
      "type": "function"
    },
    {
      "inputs": [
        {
          "internalType": "uint256",
          "name": "marketId",
          "type": "uint256"
        }
      ],
      "name": "getMarketOwner",
      "outputs": [
        {
          "internalType": "address",
          "name": "",
          "type": "address"
        }
      ],
      "stateMutability": "view",
      "type": "function"
    },
    {
      "inputs": [
        {
          "internalType": "uint256",
          "name": "marketId",
          "type": "uint256"
        },
        {
          "internalType": "uint256",
          "name": "itemId",
          "type": "uint256"
        }
      ],
      "name": "isItemOwner",
      "outputs": [
        {
          "internalType": "bool",
          "name": "",
          "type": "bool"
        }
      ],
      "stateMutability": "view",
      "type": "function"
    },
    {
      "inputs": [
        {
          "internalType": "uint256",
          "name": "marketId",
          "type": "uint256"
        }
      ],
      "name": "isMarketOwner",
      "outputs": [
        {
          "internalType": "bool",
          "name": "",
          "type": "bool"
        }
      ],
      "stateMutability": "view",
      "type": "function"
    },
    {
      "inputs": [],
      "name": "isOwner",
      "outputs": [
        {
          "internalType": "bool",
          "name": "",
          "type": "bool"
        }
      ],
      "stateMutability": "view",
      "type": "function"
    },
    {
      "inputs": [
        {
          "internalType": "uint256",
          "name": "marketId",
          "type": "uint256"
        },
        {
          "internalType": "uint256",
          "name": "itemId",
          "type": "uint256"
        }
      ],
      "name": "itemExist",
      "outputs": [
        {
          "internalType": "bool",
          "name": "",
          "type": "bool"
        }
      ],
      "stateMutability": "view",
      "type": "function"
    },
    {
      "inputs": [
        {
          "internalType": "uint256",
          "name": "marketId",
          "type": "uint256"
        },
        {
          "internalType": "uint256",
          "name": "typeId",
          "type": "uint256"
        }
      ],
      "name": "itemTypeExist",
      "outputs": [
        {
          "internalType": "bool",
          "name": "",
          "type": "bool"
        }
      ],
      "stateMutability": "view",
      "type": "function"
    },
    {
      "inputs": [
        {
          "internalType": "uint256",
          "name": "marketId",
          "type": "uint256"
        }
      ],
      "name": "marketExist",
      "outputs": [
        {
          "internalType": "bool",
          "name": "",
          "type": "bool"
        }
      ],
      "stateMutability": "view",
      "type": "function"
    },
    {
      "inputs": [
        {
          "internalType": "uint256",
          "name": "",
          "type": "uint256"
        },
        {
          "internalType": "uint256",
          "name": "",
          "type": "uint256"
        }
      ],
      "name": "marketToItemToOwner",
      "outputs": [
        {
          "internalType": "address",
          "name": "",
          "type": "address"
        }
      ],
      "stateMutability": "view",
      "type": "function"
    },
    {
      "inputs": [
        {
          "internalType": "uint256",
          "name": "",
          "type": "uint256"
        },
        {
          "internalType": "uint256",
          "name": "",
          "type": "uint256"
        }
      ],
      "name": "marketToItemTypes",
      "outputs": [
        {
          "internalType": "string",
          "name": "name",
          "type": "string"
        },
        {
          "internalType": "uint256",
          "name": "remainingSuply",
          "type": "uint256"
        },
        {
          "internalType": "uint256",
          "name": "totalSuply",
          "type": "uint256"
        },
        {
          "internalType": "bool",
          "name": "allowSale",
          "type": "bool"
        },
        {
          "internalType": "bool",
          "name": "allowAuction",
          "type": "bool"
        },
        {
          "internalType": "bool",
          "name": "allowRent",
          "type": "bool"
        },
        {
          "internalType": "bool",
          "name": "allowLootbox",
          "type": "bool"
        }
      ],
      "stateMutability": "view",
      "type": "function"
    },
    {
      "inputs": [
        {
          "internalType": "uint256",
          "name": "",
          "type": "uint256"
        },
        {
          "internalType": "uint256",
          "name": "",
          "type": "uint256"
        }
      ],
      "name": "marketToItems",
      "outputs": [
        {
          "internalType": "uint256",
          "name": "typeId",
          "type": "uint256"
        }
      ],
      "stateMutability": "view",
      "type": "function"
    },
    {
      "inputs": [
        {
          "internalType": "uint256",
          "name": "",
          "type": "uint256"
        },
        {
          "internalType": "address",
          "name": "",
          "type": "address"
        }
      ],
      "name": "marketToUsersToItemsCount",
      "outputs": [
        {
          "internalType": "uint256",
          "name": "_value",
          "type": "uint256"
        }
      ],
      "stateMutability": "view",
      "type": "function"
    },
    {
      "inputs": [
        {
          "internalType": "uint256",
          "name": "",
          "type": "uint256"
        }
      ],
      "name": "markets",
      "outputs": [
        {
          "internalType": "string",
          "name": "name",
          "type": "string"
        }
      ],
      "stateMutability": "view",
      "type": "function"
    },
    {
      "inputs": [],
      "name": "owner",
      "outputs": [
        {
          "internalType": "address",
          "name": "",
          "type": "address"
        }
      ],
      "stateMutability": "view",
      "type": "function"
    },
    {
      "inputs": [
        {
          "internalType": "uint256",
          "name": "marketId",
          "type": "uint256"
        }
      ],
      "name": "renounceMarketOwnership",
      "outputs": [],
      "stateMutability": "nonpayable",
      "type": "function"
    },
    {
      "inputs": [],
      "name": "renounceOwnership",
      "outputs": [],
      "stateMutability": "nonpayable",
      "type": "function"
    },
    {
      "inputs": [
        {
          "internalType": "uint256",
          "name": "marketId",
          "type": "uint256"
        },
        {
          "internalType": "uint256",
          "name": "itemId",
          "type": "uint256"
        },
        {
          "internalType": "address",
          "name": "to",
          "type": "address"
        }
      ],
      "name": "transferItemOwnership",
      "outputs": [],
      "stateMutability": "nonpayable",
      "type": "function"
    },
    {
      "inputs": [
        {
          "internalType": "uint256",
          "name": "marketId",
          "type": "uint256"
        },
        {
          "internalType": "address",
          "name": "newOwner",
          "type": "address"
        }
      ],
      "name": "transferMarketOwnership",
      "outputs": [],
      "stateMutability": "nonpayable",
      "type": "function"
    },
    {
      "inputs": [
        {
          "internalType": "address",
          "name": "newOwner",
          "type": "address"
        }
      ],
      "name": "transferOwnership",
      "outputs": [],
      "stateMutability": "nonpayable",
      "type": "function"
    }
  ],
  "bytecode": "0x608060405260006100146100b760201b60201c565b9050806000806101000a81548173ffffffffffffffffffffffffffffffffffffffff021916908373ffffffffffffffffffffffffffffffffffffffff1602179055508073ffffffffffffffffffffffffffffffffffffffff16600073ffffffffffffffffffffffffffffffffffffffff167f8be0079c531659141344cd1fd0a4f28419497f9722a3daafe3b4186f6b6457e060405160405180910390a3506100bf565b600033905090565b613223806100ce6000396000f3fe608060405234801561001057600080fd5b506004361061018e5760003560e01c80638da5cb5b116100de578063bb6b53bf11610097578063f2fde38b11610071578063f2fde38b14610afd578063f373f04814610b41578063fc3ff78014610b8d578063fcc08cd414610bef5761018e565b8063bb6b53bf1461093f578063bfacba3d14610985578063cf30f56f14610a2c5761018e565b80638da5cb5b146106a55780638f32d59b146106ef578063a84fc48514610711578063ad661efe14610761578063adae08dd1461084c578063b1283e77146108985761018e565b806363a244111161014b5780637cfc1818116101255780637cfc18181461054d5780638a4021bd1461059b5780638bce7c30146105e75780638be527021461065f5761018e565b806363a24411146104915780636e7c1705146104f3578063715018a6146105435761018e565b8063073098461461019357806316090962146101c1578063380cb76e146102115780633b64a7b7146102fc5780633d3690291461035457806354888f55146103c2575b600080fd5b6101bf600480360360208110156101a957600080fd5b8101908080359060200190929190505050610c67565b005b6101f7600480360360408110156101d757600080fd5b810190808035906020019092919080359060200190929190505050610e9d565b604051808215151515815260200191505060405180910390f35b6102476004803603604081101561022757600080fd5b810190808035906020019092919080359060200190929190505050610ed1565b604051808060200188815260200187815260200186151515158152602001851515151581526020018415151515815260200183151515158152602001828103825289818151815260200191508051906020019080838360005b838110156102bb5780820151818401526020810190506102a0565b50505050905090810190601f1680156102e85780820380516001836020036101000a031916815260200191505b509850505050505050505060405180910390f35b6103526004803603606081101561031257600080fd5b810190808035906020019092919080359060200190929190803573ffffffffffffffffffffffffffffffffffffffff1690602001909291905050506110e3565b005b6103806004803603602081101561036a57600080fd5b81019080803590602001909291905050506112c4565b604051808273ffffffffffffffffffffffffffffffffffffffff1673ffffffffffffffffffffffffffffffffffffffff16815260200191505060405180910390f35b61047b600480360360208110156103d857600080fd5b81019080803590602001906401000000008111156103f557600080fd5b82018360208201111561040757600080fd5b8035906020019184600183028401116401000000008311171561042957600080fd5b91908080601f016020809104026020016040519081016040528093929190818152602001838380828437600081840152601f19601f82011690508083019250505050505050919291929050505061135f565b6040518082815260200191505060405180910390f35b6104dd600480360360408110156104a757600080fd5b8101908080359060200190929190803573ffffffffffffffffffffffffffffffffffffffff169060200190929190505050611452565b6040518082815260200191505060405180910390f35b6105296004803603604081101561050957600080fd5b81019080803590602001909291908035906020019092919050505061147d565b604051808215151515815260200191505060405180910390f35b61054b6114b1565b005b6105996004803603604081101561056357600080fd5b8101908080359060200190929190803573ffffffffffffffffffffffffffffffffffffffff1690602001909291905050506115ea565b005b6105d1600480360360408110156105b157600080fd5b8101908080359060200190929190803590602001909291905050506118c4565b6040518082815260200191505060405180910390f35b61061d600480360360408110156105fd57600080fd5b8101908080359060200190929190803590602001909291905050506118f8565b604051808273ffffffffffffffffffffffffffffffffffffffff1673ffffffffffffffffffffffffffffffffffffffff16815260200191505060405180910390f35b61068b6004803603602081101561067557600080fd5b810190808035906020019092919050505061193a565b604051808215151515815260200191505060405180910390f35b6106ad61194b565b604051808273ffffffffffffffffffffffffffffffffffffffff1673ffffffffffffffffffffffffffffffffffffffff16815260200191505060405180910390f35b6106f7611974565b604051808215151515815260200191505060405180910390f35b6107476004803603604081101561072757600080fd5b8101908080359060200190929190803590602001909291905050506119d2565b604051808215151515815260200191505060405180910390f35b6107976004803603604081101561077757600080fd5b810190808035906020019092919080359060200190929190505050611aae565b604051808060200188815260200187815260200186151515158152602001851515151581526020018415151515815260200183151515158152602001828103825289818151815260200191508051906020019080838360005b8381101561080b5780820151818401526020810190506107f0565b50505050905090810190601f1680156108385780820380516001836020036101000a031916815260200191505b509850505050505050505060405180910390f35b6108826004803603604081101561086257600080fd5b810190808035906020019092919080359060200190929190505050611bd6565b6040518082815260200191505060405180910390f35b6108c4600480360360208110156108ae57600080fd5b8101908080359060200190929190505050611d9f565b6040518080602001828103825283818151815260200191508051906020019080838360005b838110156109045780820151818401526020810190506108e9565b50505050905090810190601f1680156109315780820380516001836020036101000a031916815260200191505b509250505060405180910390f35b61096b6004803603602081101561095557600080fd5b8101908080359060200190929190505050611e5e565b604051808215151515815260200191505060405180910390f35b6109b16004803603602081101561099b57600080fd5b8101908080359060200190929190505050611f27565b6040518080602001828103825283818151815260200191508051906020019080838360005b838110156109f15780820151818401526020810190506109d6565b50505050905090810190601f168015610a1e5780820380516001836020036101000a031916815260200191505b509250505060405180910390f35b610ae7600480360360e0811015610a4257600080fd5b810190808035906020019092919080359060200190640100000000811115610a6957600080fd5b820183602082011115610a7b57600080fd5b80359060200191846001830284011164010000000083111715610a9d57600080fd5b909192939192939080359060200190929190803515159060200190929190803515159060200190929190803515159060200190929190803515159060200190929190505050612047565b6040518082815260200191505060405180910390f35b610b3f60048036036020811015610b1357600080fd5b81019080803573ffffffffffffffffffffffffffffffffffffffff16906020019092919050505061236b565b005b610b7760048036036040811015610b5757600080fd5b8101908080359060200190929190803590602001909291905050506123f1565b6040518082815260200191505060405180910390f35b610bd960048036036040811015610ba357600080fd5b8101908080359060200190929190803573ffffffffffffffffffffffffffffffffffffffff1690602001909291905050506124ab565b6040518082815260200191505060405180910390f35b610c2560048036036040811015610c0557600080fd5b8101908080359060200190929190803590602001909291905050506125f0565b604051808273ffffffffffffffffffffffffffffffffffffffff1673ffffffffffffffffffffffffffffffffffffffff16815260200191505060405180910390f35b80610c718161193a565b610ce3576040517f08c379a00000000000000000000000000000000000000000000000000000000081526004018080602001828103825260158152602001807f4d61726b657420646f6573206e6f74206578697374000000000000000000000081525060200191505060405180910390fd5b3373ffffffffffffffffffffffffffffffffffffffff166002600083815260200190815260200160002060009054906101000a900473ffffffffffffffffffffffffffffffffffffffff1673ffffffffffffffffffffffffffffffffffffffff1614610db7576040517f08c379a00000000000000000000000000000000000000000000000000000000081526004018080602001828103825260178152602001807f43616c6c6572206973206e6f7420746865206f776e657200000000000000000081525060200191505060405180910390fd5b600073ffffffffffffffffffffffffffffffffffffffff166002600084815260200190815260200160002060009054906101000a900473ffffffffffffffffffffffffffffffffffffffff1673ffffffffffffffffffffffffffffffffffffffff16837f2db5f9b069d085fba50688059d869a45ac805a9f56fe633ca94e0c306f25f30560405160405180910390a460006002600084815260200190815260200160002060006101000a81548173ffffffffffffffffffffffffffffffffffffffff021916908373ffffffffffffffffffffffffffffffffffffffff1602179055505050565b6000610ea88361193a565b8015610ec95750816003600085815260200190815260200160002080549050115b905092915050565b60606000806000806000808888610ee88282610e9d565b610f3d576040517f08c379a000000000000000000000000000000000000000000000000000000000815260040180806020018281038252602a8152602001806130f6602a913960400191505060405180910390fd5b610f45612f69565b600360008d81526020019081526020016000208b81548110610f6357fe5b90600052602060002090600402016040518060e0016040529081600082018054600181600116156101000203166002900480601f0160208091040260200160405190810160405280929190818152602001828054600181600116156101000203166002900480156110155780601f10610fea57610100808354040283529160200191611015565b820191906000526020600020905b815481529060010190602001808311610ff857829003601f168201915b5050505050815260200160018201548152602001600282015481526020016003820160009054906101000a900460ff161515151581526020016003820160019054906101000a900460ff161515151581526020016003820160029054906101000a900460ff161515151581526020016003820160039054906101000a900460ff1615151515815250509050806000015181602001518260400151836060015184608001518560a001518660c00151869650995099509950995099509950995050505092959891949750929550565b82826110ef828261147d565b611144576040517f08c379a00000000000000000000000000000000000000000000000000000000081526004018080602001828103825260258152602001806131956025913960400191505060405180910390fd5b3373ffffffffffffffffffffffffffffffffffffffff1660066000848152602001908152602001600020600083815260200190815260200160002060009054906101000a900473ffffffffffffffffffffffffffffffffffffffff1673ffffffffffffffffffffffffffffffffffffffff161461120c576040517f08c379a00000000000000000000000000000000000000000000000000000000081526004018080602001828103825260218152602001806130b46021913960400191505060405180910390fd5b82600073ffffffffffffffffffffffffffffffffffffffff168173ffffffffffffffffffffffffffffffffffffffff1614156112b0576040517f08c379a00000000000000000000000000000000000000000000000000000000081526004018080602001828103825260208152602001807f436865636b4164647265737320697320746865207a65726f206164647265737381525060200191505060405180910390fd5b6112bc8686338761269e565b505050505050565b60006112cf8261193a565b611324576040517f08c379a00000000000000000000000000000000000000000000000000000000081526004018080602001828103825260218152602001806130d56021913960400191505060405180910390fd5b6002600083815260200190815260200160002060009054906101000a900473ffffffffffffffffffffffffffffffffffffffff169050919050565b600060016040518060200160405280848152509080600181540180825580915050600190039060005260206000200160009091909190915060008201518160000190805190602001906113b3929190612fae565b50505060006113c86001805490506001612a6e565b9050336002600083815260200190815260200160002060006101000a81548173ffffffffffffffffffffffffffffffffffffffff021916908373ffffffffffffffffffffffffffffffffffffffff160217905550807f25b2eff8f9cbb97c6c73adf7d94f4f8956260becc65ab075709db7561914a2b160405160405180910390a280915050919050565b6005602052816000526040600020602052806000526040600020600091509150508060000154905081565b60006114888361193a565b80156114a95750816004600085815260200190815260200160002080549050115b905092915050565b6114b9611974565b61152b576040517f08c379a00000000000000000000000000000000000000000000000000000000081526004018080602001828103825260208152602001807f4f776e61626c653a2063616c6c6572206973206e6f7420746865206f776e657281525060200191505060405180910390fd5b600073ffffffffffffffffffffffffffffffffffffffff166000809054906101000a900473ffffffffffffffffffffffffffffffffffffffff1673ffffffffffffffffffffffffffffffffffffffff167f8be0079c531659141344cd1fd0a4f28419497f9722a3daafe3b4186f6b6457e060405160405180910390a360008060006101000a81548173ffffffffffffffffffffffffffffffffffffffff021916908373ffffffffffffffffffffffffffffffffffffffff160217905550565b816115f48161193a565b611666576040517f08c379a00000000000000000000000000000000000000000000000000000000081526004018080602001828103825260158152602001807f4d61726b657420646f6573206e6f74206578697374000000000000000000000081525060200191505060405180910390fd5b3373ffffffffffffffffffffffffffffffffffffffff166002600083815260200190815260200160002060009054906101000a900473ffffffffffffffffffffffffffffffffffffffff1673ffffffffffffffffffffffffffffffffffffffff161461173a576040517f08c379a00000000000000000000000000000000000000000000000000000000081526004018080602001828103825260178152602001807f43616c6c6572206973206e6f7420746865206f776e657200000000000000000081525060200191505060405180910390fd5b81600073ffffffffffffffffffffffffffffffffffffffff168173ffffffffffffffffffffffffffffffffffffffff1614156117de576040517f08c379a00000000000000000000000000000000000000000000000000000000081526004018080602001828103825260208152602001807f436865636b4164647265737320697320746865207a65726f206164647265737381525060200191505060405180910390fd5b8273ffffffffffffffffffffffffffffffffffffffff166002600086815260200190815260200160002060009054906101000a900473ffffffffffffffffffffffffffffffffffffffff1673ffffffffffffffffffffffffffffffffffffffff16857f2db5f9b069d085fba50688059d869a45ac805a9f56fe633ca94e0c306f25f30560405160405180910390a4826002600086815260200190815260200160002060006101000a81548173ffffffffffffffffffffffffffffffffffffffff021916908373ffffffffffffffffffffffffffffffffffffffff16021790555050505050565b600460205281600052604060002081815481106118dd57fe5b90600052602060002001600091509150508060000154905081565b60066020528160005260406000206020528060005260406000206000915091509054906101000a900473ffffffffffffffffffffffffffffffffffffffff1681565b600081600180549050119050919050565b60008060009054906101000a900473ffffffffffffffffffffffffffffffffffffffff16905090565b60008060009054906101000a900473ffffffffffffffffffffffffffffffffffffffff1673ffffffffffffffffffffffffffffffffffffffff166119b6612ab8565b73ffffffffffffffffffffffffffffffffffffffff1614905090565b60006119de838361147d565b611a33576040517f08c379a00000000000000000000000000000000000000000000000000000000081526004018080602001828103825260258152602001806131956025913960400191505060405180910390fd5b3373ffffffffffffffffffffffffffffffffffffffff1660066000858152602001908152602001600020600084815260200190815260200160002060009054906101000a900473ffffffffffffffffffffffffffffffffffffffff1673ffffffffffffffffffffffffffffffffffffffff1614905092915050565b60036020528160005260406000208181548110611ac757fe5b906000526020600020906004020160009150915050806000018054600181600116156101000203166002900480601f016020809104026020016040519081016040528092919081815260200182805460018160011615610100020316600290048015611b745780601f10611b4957610100808354040283529160200191611b74565b820191906000526020600020905b815481529060010190602001808311611b5757829003601f168201915b5050505050908060010154908060020154908060030160009054906101000a900460ff16908060030160019054906101000a900460ff16908060030160029054906101000a900460ff16908060030160039054906101000a900460ff16905087565b600082611be28161193a565b611c54576040517f08c379a00000000000000000000000000000000000000000000000000000000081526004018080602001828103825260158152602001807f4d61726b657420646f6573206e6f74206578697374000000000000000000000081525060200191505060405180910390fd5b3373ffffffffffffffffffffffffffffffffffffffff166002600083815260200190815260200160002060009054906101000a900473ffffffffffffffffffffffffffffffffffffffff1673ffffffffffffffffffffffffffffffffffffffff1614611d28576040517f08c379a00000000000000000000000000000000000000000000000000000000081526004018080602001828103825260178152602001807f43616c6c6572206973206e6f7420746865206f776e657200000000000000000081525060200191505060405180910390fd5b8383611d348282610e9d565b611d89576040517f08c379a000000000000000000000000000000000000000000000000000000000815260040180806020018281038252602a8152602001806130f6602a913960400191505060405180910390fd5b611d94868633612ac0565b935050505092915050565b60018181548110611dac57fe5b90600052602060002001600091509050806000018054600181600116156101000203166002900480601f016020809104026020016040519081016040528092919081815260200182805460018160011615610100020316600290048015611e545780601f10611e2957610100808354040283529160200191611e54565b820191906000526020600020905b815481529060010190602001808311611e3757829003601f168201915b5050505050905081565b6000611e698261193a565b611ebe576040517f08c379a00000000000000000000000000000000000000000000000000000000081526004018080602001828103825260218152602001806130d56021913960400191505060405180910390fd5b3373ffffffffffffffffffffffffffffffffffffffff166002600084815260200190815260200160002060009054906101000a900473ffffffffffffffffffffffffffffffffffffffff1673ffffffffffffffffffffffffffffffffffffffff16149050919050565b6060611f328261193a565b611f87576040517f08c379a00000000000000000000000000000000000000000000000000000000081526004018080602001828103825260218152602001806130d56021913960400191505060405180910390fd5b600060018381548110611f9657fe5b906000526020600020019050806000018054600181600116156101000203166002900480601f01602080910402602001604051908101604052809291908181526020018280546001816001161561010002031660029004801561203a5780601f1061200f5761010080835404028352916020019161203a565b820191906000526020600020905b81548152906001019060200180831161201d57829003601f168201915b5050505050915050919050565b6000886120538161193a565b6120c5576040517f08c379a00000000000000000000000000000000000000000000000000000000081526004018080602001828103825260158152602001807f4d61726b657420646f6573206e6f74206578697374000000000000000000000081525060200191505060405180910390fd5b3373ffffffffffffffffffffffffffffffffffffffff166002600083815260200190815260200160002060009054906101000a900473ffffffffffffffffffffffffffffffffffffffff1673ffffffffffffffffffffffffffffffffffffffff1614612199576040517f08c379a00000000000000000000000000000000000000000000000000000000081526004018080602001828103825260178152602001807f43616c6c6572206973206e6f7420746865206f776e657200000000000000000081525060200191505060405180910390fd5b600360008b81526020019081526020016000206040518060e001604052808b8b8080601f016020809104026020016040519081016040528093929190818152602001838380828437600081840152601f19601f82011690508083019250505050505050815260200189815260200189815260200188151581526020018715158152602001861515815260200185151581525090806001815401808255809150506001900390600052602060002090600402016000909190919091506000820151816000019080519060200190612270929190612fae565b50602082015181600101556040820151816002015560608201518160030160006101000a81548160ff02191690831515021790555060808201518160030160016101000a81548160ff02191690831515021790555060a08201518160030160026101000a81548160ff02191690831515021790555060c08201518160030160036101000a81548160ff0219169083151502179055505050600061232a600360008d8152602001908152602001600020805490506001612a6e565b9050808b7f7934e0f5d948c4a79a3febe9190e48f7c9017e7655c1f47105f8478ef984102a60405160405180910390a3809250505098975050505050505050565b612373611974565b6123e5576040517f08c379a00000000000000000000000000000000000000000000000000000000081526004018080602001828103825260208152602001807f4f776e61626c653a2063616c6c6572206973206e6f7420746865206f776e657281525060200191505060405180910390fd5b6123ee81612cc6565b50565b600082826123ff828261147d565b612454576040517f08c379a00000000000000000000000000000000000000000000000000000000081526004018080602001828103825260258152602001806131956025913960400191505060405180910390fd5b61245c61302e565b60046000878152602001908152602001600020858154811061247a57fe5b9060005260206000200160405180602001604052908160008201548152505090508060000151935050505092915050565b60008073ffffffffffffffffffffffffffffffffffffffff168273ffffffffffffffffffffffffffffffffffffffff161415612532576040517f08c379a00000000000000000000000000000000000000000000000000000000081526004018080602001828103825260428152602001806131206042913960600191505060405180910390fd5b61253b8361193a565b612590576040517f08c379a00000000000000000000000000000000000000000000000000000000081526004018080602001828103825260278152602001806130676027913960400191505060405180910390fd5b6125e86005600085815260200190815260200160002060003373ffffffffffffffffffffffffffffffffffffffff1673ffffffffffffffffffffffffffffffffffffffff168152602001908152602001600020612e0a565b905092915050565b60006125fc838361147d565b612651576040517f08c379a000000000000000000000000000000000000000000000000000000000815260040180806020018281038252602a8152602001806130f6602a913960400191505060405180910390fd5b60066000848152602001908152602001600020600083815260200190815260200160002060009054906101000a900473ffffffffffffffffffffffffffffffffffffffff16905092915050565b80600073ffffffffffffffffffffffffffffffffffffffff168173ffffffffffffffffffffffffffffffffffffffff161415612742576040517f08c379a00000000000000000000000000000000000000000000000000000000081526004018080602001828103825260208152602001807f436865636b4164647265737320697320746865207a65726f206164647265737381525060200191505060405180910390fd5b8173ffffffffffffffffffffffffffffffffffffffff168373ffffffffffffffffffffffffffffffffffffffff1614156127c7576040517f08c379a00000000000000000000000000000000000000000000000000000000081526004018080602001828103825260338152602001806131626033913960400191505060405180910390fd5b6127d1858561147d565b612826576040517f08c379a00000000000000000000000000000000000000000000000000000000081526004018080602001828103825260258152602001806131956025913960400191505060405180910390fd5b8273ffffffffffffffffffffffffffffffffffffffff1660066000878152602001908152602001600020600086815260200190815260200160002060009054906101000a900473ffffffffffffffffffffffffffffffffffffffff1673ffffffffffffffffffffffffffffffffffffffff16146128ee576040517f08c379a00000000000000000000000000000000000000000000000000000000081526004018080602001828103825260218152602001806130b46021913960400191505060405180910390fd5b6129466005600087815260200190815260200160002060008573ffffffffffffffffffffffffffffffffffffffff1673ffffffffffffffffffffffffffffffffffffffff168152602001908152602001600020612e18565b61299e6005600087815260200190815260200160002060008473ffffffffffffffffffffffffffffffffffffffff1673ffffffffffffffffffffffffffffffffffffffff168152602001908152602001600020612e3b565b8160066000878152602001908152602001600020600086815260200190815260200160002060006101000a81548173ffffffffffffffffffffffffffffffffffffffff021916908373ffffffffffffffffffffffffffffffffffffffff1602179055508173ffffffffffffffffffffffffffffffffffffffff168373ffffffffffffffffffffffffffffffffffffffff16867f297028ce8af626c92b0bd8baa9fb2ab9a78677c4a12fac9d68113eb9d27208c7876040518082815260200191505060405180910390a45050505050565b6000612ab083836040518060400160405280601e81526020017f536166654d6174683a207375627472616374696f6e206f766572666c6f770000815250612e51565b905092915050565b600033905090565b600080600360008681526020019081526020016000208481548110612ae157fe5b90600052602060002090600402019050612afa81612f11565b612b4f576040517f08c379a00000000000000000000000000000000000000000000000000000000081526004018080602001828103825260348152602001806131ba6034913960400191505060405180910390fd5b60046000868152602001908152602001600020604051806020016040528086815250908060018154018082558091505060019003906000526020600020016000909190919091506000820151816000015550506000612bc560046000888152602001908152602001600020805490506001612a6e565b9050612c1f6005600088815260200190815260200160002060008673ffffffffffffffffffffffffffffffffffffffff1673ffffffffffffffffffffffffffffffffffffffff168152602001908152602001600020612e3b565b8360066000888152602001908152602001600020600083815260200190815260200160002060006101000a81548173ffffffffffffffffffffffffffffffffffffffff021916908373ffffffffffffffffffffffffffffffffffffffff160217905550612c8b82612f30565b8085877fe4c069d6d656e522b253bfc665628b0926e17c426d278d9025aa33d46a53802060405160405180910390a480925050509392505050565b600073ffffffffffffffffffffffffffffffffffffffff168173ffffffffffffffffffffffffffffffffffffffff161415612d4c576040517f08c379a000000000000000000000000000000000000000000000000000000000815260040180806020018281038252602681526020018061308e6026913960400191505060405180910390fd5b8073ffffffffffffffffffffffffffffffffffffffff166000809054906101000a900473ffffffffffffffffffffffffffffffffffffffff1673ffffffffffffffffffffffffffffffffffffffff167f8be0079c531659141344cd1fd0a4f28419497f9722a3daafe3b4186f6b6457e060405160405180910390a3806000806101000a81548173ffffffffffffffffffffffffffffffffffffffff021916908373ffffffffffffffffffffffffffffffffffffffff16021790555050565b600081600001549050919050565b612e3060018260000154612a6e90919063ffffffff16565b816000018190555050565b6001816000016000828254019250508190555050565b6000838311158290612efe576040517f08c379a00000000000000000000000000000000000000000000000000000000081526004018080602001828103825283818151815260200191508051906020019080838360005b83811015612ec3578082015181840152602081019050612ea8565b50505050905090810190601f168015612ef05780820380516001836020036101000a031916815260200191505b509250505060405180910390fd5b5060008385039050809150509392505050565b60008082600201541480612f29575060008260010154115b9050919050565b612f3981612f59565b15612f5657612f4d81600101546001612a6e565b81600101819055505b50565b6000808260020154119050919050565b6040518060e001604052806060815260200160008152602001600081526020016000151581526020016000151581526020016000151581526020016000151581525090565b828054600181600116156101000203166002900490600052602060002090601f016020900481019282601f10612fef57805160ff191683800117855561301d565b8280016001018555821561301d579182015b8281111561301c578251825591602001919060010190613001565b5b50905061302a9190613041565b5090565b6040518060200160405280600081525090565b61306391905b8082111561305f576000816000905550600101613047565b5090565b9056fe4d61726b6574506f6f6c5f4974656d733a204d61726b657420646f6573206e6f742065786973744f776e61626c653a206e6577206f776e657220697320746865207a65726f20616464726573734d61726b6574506f6f6c5f4974656d733a204974206973206e6f74206f776e65724d61726b6574506f6f6c3a204d61726b657420646f6573206e6f742065786973744d61726b6574506f6f6c5f4974656d733a204974656d205479706520646f6573206e6f742065786973744d61726b6574506f6f6c5f4974656d733a20417474656d707420746f20636865636b207468652062616c616e636520617420746865207a65726f20616464726573734d61726b6574506f6f6c5f4974656d733a202766726f6d27206164647265737320657175616c2027746f2720616464726573734d61726b6574506f6f6c5f4974656d733a204974656d20646f6573206e6f742065786973744d61726b6574506f6f6c5f4974656d733a2063616e6e6f742063726561746520616e206974656d206f6620746869732074797065a2646970667358221220aacbef8cd3a1c809e8035fc56670cadd6b567f8b484e4376631636425e0abd8b64736f6c63430006030033",
  "source": "pragma solidity >=0.6.0;\r\n\r\nimport \"./MarketPool_Items.sol\";\r\n\r\ncontract MarketPool_SaleRelease is MarketPool_Items {\r\n    using SafeMath for uint256;\r\n    \r\n    \r\n    \r\n}",
  "sourcePath": "E:\\MeineArbeit\\Solidity\\MarketPool\\contracts\\MarketPool_SaleRelease.sol",
  "compiler": {
    "name": "solc",
    "version": "0.6.3+commit.8dda9521.Emscripten.clang"
  },
  "schemaVersion": "3.0.23",
  "updatedAt": "2020-03-06T09:17:01.659Z",
  "devdoc": {
    "methods": {
      "createMarket(string)": {
        "params": {
          "name": "The name of marketplace"
        },
        "returns": {
          "_0": "id of the created market"
        }
      },
      "isOwner()": {
        "details": "Returns true if the caller is the current owner."
      },
      "owner()": {
        "details": "Returns the address of the current owner."
      },
      "renounceOwnership()": {
        "details": "Leaves the contract without owner. It will not be possible to call `onlyOwner` functions anymore. Can only be called by the current owner.     * NOTE: Renouncing ownership will leave the contract without an owner, thereby removing any functionality that is only available to the owner."
      },
      "transferOwnership(address)": {
        "details": "Transfers ownership of the contract to a new account (`newOwner`). Can only be called by the current owner."
      }
    }
  },
  "userdoc": {
    "methods": {
      "createItem(uint256,uint256)": {
        "notice": "Can call only owner. Create Item for selected Market and Type. Owner of item will be owner of market"
      },
      "createItemType(uint256,string,uint256,bool,bool,bool,bool)": {
        "notice": "Create ItemType for selected Market."
      },
      "createMarket(string)": {
        "notice": "Create new Market for sender."
      },
      "getItemData(uint256,uint256)": {
        "notice": "Return data about item"
      },
      "getItemTypeData(uint256,uint256)": {
        "notice": "Return data about item type"
      },
      "getMarketData(uint256)": {
        "notice": "Return all data of market by its id"
      },
      "getMarketOwner(uint256)": {
        "notice": "Return addres of market owner"
      },
      "isMarketOwner(uint256)": {
        "notice": "Chech if it is market owner "
      },
      "marketExist(uint256)": {
        "notice": "Check if market exist "
      },
      "renounceMarketOwnership(uint256)": {
        "notice": "Renouncing ownership will leave the contract without an market owner, thereby removing any functionality that is only available to the market owner (e.g. creating new Item Types)."
      },
      "transferItemOwnership(uint256,uint256,address)": {
        "notice": "Can call only item owner. Change item owner to ('to')"
      },
      "transferMarketOwnership(uint256,address)": {
        "notice": "Transfers ownership of the ('marketId') to a new account (`newOwner`)."
      }
    }
  }
}