{
  "contractName": "MarketPool_ItemRelease_Sale",
  "abi": [
    {
      "anonymous": false,
      "inputs": [
        {
          "indexed": true,
          "internalType": "uint256",
          "name": "marketId",
          "type": "uint256"
        },
        {
          "indexed": true,
          "internalType": "uint256",
          "name": "itemTypeId",
          "type": "uint256"
        },
        {
          "indexed": true,
          "internalType": "uint256",
          "name": "itemId",
          "type": "uint256"
        }
      ],
      "name": "ItemCreated",
      "type": "event"
    },
    {
      "anonymous": false,
      "inputs": [
        {
          "indexed": true,
          "internalType": "uint256",
          "name": "marketId",
          "type": "uint256"
        },
        {
          "indexed": false,
          "internalType": "uint256",
          "name": "itemId",
          "type": "uint256"
        },
        {
          "indexed": true,
          "internalType": "address",
          "name": "previousOwner",
          "type": "address"
        },
        {
          "indexed": true,
          "internalType": "address",
          "name": "newOwner",
          "type": "address"
        }
      ],
      "name": "ItemOwnershipTransferred",
      "type": "event"
    },
    {
      "anonymous": false,
      "inputs": [
        {
          "indexed": true,
          "internalType": "uint256",
          "name": "marketId",
          "type": "uint256"
        },
        {
          "indexed": true,
          "internalType": "uint256",
          "name": "itemTypeId",
          "type": "uint256"
        }
      ],
      "name": "ItemTypeCreated",
      "type": "event"
    },
    {
      "anonymous": false,
      "inputs": [
        {
          "indexed": true,
          "internalType": "uint256",
          "name": "marketId",
          "type": "uint256"
        },
        {
          "indexed": true,
          "internalType": "address",
          "name": "owner",
          "type": "address"
        }
      ],
      "name": "MarketCreated",
      "type": "event"
    },
    {
      "anonymous": false,
      "inputs": [
        {
          "indexed": true,
          "internalType": "uint256",
          "name": "marketId",
          "type": "uint256"
        },
        {
          "indexed": true,
          "internalType": "address",
          "name": "previousOwner",
          "type": "address"
        },
        {
          "indexed": true,
          "internalType": "address",
          "name": "newOwner",
          "type": "address"
        }
      ],
      "name": "MarketOwnershipTransferred",
      "type": "event"
    },
    {
      "anonymous": false,
      "inputs": [
        {
          "indexed": true,
          "internalType": "address",
          "name": "previousOwner",
          "type": "address"
        },
        {
          "indexed": true,
          "internalType": "address",
          "name": "newOwner",
          "type": "address"
        }
      ],
      "name": "OwnershipTransferred",
      "type": "event"
    },
    {
      "anonymous": false,
      "inputs": [
        {
          "indexed": true,
          "internalType": "uint256",
          "name": "marketId",
          "type": "uint256"
        },
        {
          "indexed": true,
          "internalType": "uint256",
          "name": "saleReleaseInnerId",
          "type": "uint256"
        },
        {
          "indexed": false,
          "internalType": "uint256[]",
          "name": "itemIdArray",
          "type": "uint256[]"
        }
      ],
      "name": "SaleReleaseBought",
      "type": "event"
    },
    {
      "anonymous": false,
      "inputs": [
        {
          "indexed": true,
          "internalType": "uint256",
          "name": "marketId",
          "type": "uint256"
        },
        {
          "indexed": true,
          "internalType": "uint256",
          "name": "saleReleaseInnerId",
          "type": "uint256"
        }
      ],
      "name": "SaleReleaseCreated",
      "type": "event"
    },
    {
      "anonymous": false,
      "inputs": [
        {
          "indexed": true,
          "internalType": "uint256",
          "name": "marketId",
          "type": "uint256"
        },
        {
          "indexed": true,
          "internalType": "uint256",
          "name": "saleReleaseInnerId",
          "type": "uint256"
        }
      ],
      "name": "SaleReleaseRemoved",
      "type": "event"
    },
    {
      "anonymous": false,
      "inputs": [
        {
          "indexed": true,
          "internalType": "uint256",
          "name": "marketId",
          "type": "uint256"
        },
        {
          "indexed": true,
          "internalType": "uint256",
          "name": "saleReleaseInnerId",
          "type": "uint256"
        }
      ],
      "name": "SaleReleaseUpdated",
      "type": "event"
    },
    {
      "stateMutability": "payable",
      "type": "fallback",
      "payable": true
    },
    {
      "inputs": [
        {
          "internalType": "uint256",
          "name": "marketId",
          "type": "uint256"
        },
        {
          "internalType": "address",
          "name": "itemsOwner",
          "type": "address"
        }
      ],
      "name": "balanceOfItems",
      "outputs": [
        {
          "internalType": "uint256",
          "name": "",
          "type": "uint256"
        }
      ],
      "stateMutability": "view",
      "type": "function",
      "constant": true
    },
    {
      "inputs": [
        {
          "internalType": "uint256",
          "name": "marketId",
          "type": "uint256"
        },
        {
          "internalType": "uint256",
          "name": "typeId",
          "type": "uint256"
        }
      ],
      "name": "createItem",
      "outputs": [
        {
          "internalType": "uint256",
          "name": "",
          "type": "uint256"
        }
      ],
      "stateMutability": "nonpayable",
      "type": "function"
    },
    {
      "inputs": [
        {
          "internalType": "uint256",
          "name": "marketId",
          "type": "uint256"
        },
        {
          "internalType": "string",
          "name": "name",
          "type": "string"
        },
        {
          "internalType": "uint256",
          "name": "totalSupply",
          "type": "uint256"
        },
        {
          "internalType": "bool",
          "name": "allowSale",
          "type": "bool"
        },
        {
          "internalType": "bool",
          "name": "allowAuction",
          "type": "bool"
        },
        {
          "internalType": "bool",
          "name": "allowRent",
          "type": "bool"
        },
        {
          "internalType": "bool",
          "name": "allowLootbox",
          "type": "bool"
        }
      ],
      "name": "createItemType",
      "outputs": [
        {
          "internalType": "uint256",
          "name": "",
          "type": "uint256"
        }
      ],
      "stateMutability": "nonpayable",
      "type": "function"
    },
    {
      "inputs": [
        {
          "internalType": "string",
          "name": "name",
          "type": "string"
        }
      ],
      "name": "createMarket",
      "outputs": [
        {
          "internalType": "uint256",
          "name": "",
          "type": "uint256"
        }
      ],
      "stateMutability": "nonpayable",
      "type": "function"
    },
    {
      "inputs": [
        {
          "internalType": "uint256",
          "name": "marketId",
          "type": "uint256"
        },
        {
          "internalType": "uint256",
          "name": "itemId",
          "type": "uint256"
        }
      ],
      "name": "getItemData",
      "outputs": [
        {
          "internalType": "uint256",
          "name": "itemTypeId",
          "type": "uint256"
        }
      ],
      "stateMutability": "view",
      "type": "function",
      "constant": true
    },
    {
      "inputs": [
        {
          "internalType": "uint256",
          "name": "marketId",
          "type": "uint256"
        },
        {
          "internalType": "uint256",
          "name": "itemId",
          "type": "uint256"
        }
      ],
      "name": "getItemOwner",
      "outputs": [
        {
          "internalType": "address",
          "name": "",
          "type": "address"
        }
      ],
      "stateMutability": "view",
      "type": "function",
      "constant": true
    },
    {
      "inputs": [
        {
          "internalType": "uint256",
          "name": "marketId",
          "type": "uint256"
        },
        {
          "internalType": "uint256",
          "name": "typeId",
          "type": "uint256"
        }
      ],
      "name": "getItemTypeData",
      "outputs": [
        {
          "internalType": "string",
          "name": "name",
          "type": "string"
        },
        {
          "internalType": "uint256",
          "name": "remainingSupply",
          "type": "uint256"
        },
        {
          "internalType": "uint256",
          "name": "totalSupply",
          "type": "uint256"
        },
        {
          "internalType": "bool",
          "name": "isFinal",
          "type": "bool"
        },
        {
          "internalType": "bool",
          "name": "allowSale",
          "type": "bool"
        },
        {
          "internalType": "bool",
          "name": "allowAuction",
          "type": "bool"
        },
        {
          "internalType": "bool",
          "name": "allowRent",
          "type": "bool"
        },
        {
          "internalType": "bool",
          "name": "allowLootbox",
          "type": "bool"
        }
      ],
      "stateMutability": "view",
      "type": "function",
      "constant": true
    },
    {
      "inputs": [
        {
          "internalType": "address",
          "name": "owner",
          "type": "address"
        }
      ],
      "name": "getMarketCounts",
      "outputs": [
        {
          "internalType": "uint256",
          "name": "",
          "type": "uint256"
        }
      ],
      "stateMutability": "view",
      "type": "function",
      "constant": true
    },
    {
      "inputs": [
        {
          "internalType": "uint256",
          "name": "marketId",
          "type": "uint256"
        }
      ],
      "name": "getMarketData",
      "outputs": [
        {
          "internalType": "string",
          "name": "name",
          "type": "string"
        }
      ],
      "stateMutability": "view",
      "type": "function",
      "constant": true
    },
    {
      "inputs": [
        {
          "internalType": "uint256",
          "name": "marketId",
          "type": "uint256"
        }
      ],
      "name": "getMarketOwner",
      "outputs": [
        {
          "internalType": "address",
          "name": "",
          "type": "address"
        }
      ],
      "stateMutability": "view",
      "type": "function",
      "constant": true
    },
    {
      "inputs": [
        {
          "internalType": "uint256",
          "name": "marketId",
          "type": "uint256"
        },
        {
          "internalType": "uint256",
          "name": "itemId",
          "type": "uint256"
        }
      ],
      "name": "isItemOwner",
      "outputs": [
        {
          "internalType": "bool",
          "name": "",
          "type": "bool"
        }
      ],
      "stateMutability": "view",
      "type": "function",
      "constant": true
    },
    {
      "inputs": [
        {
          "internalType": "uint256",
          "name": "marketId",
          "type": "uint256"
        }
      ],
      "name": "isMarketOwner",
      "outputs": [
        {
          "internalType": "bool",
          "name": "",
          "type": "bool"
        }
      ],
      "stateMutability": "view",
      "type": "function",
      "constant": true
    },
    {
      "inputs": [],
      "name": "isOwner",
      "outputs": [
        {
          "internalType": "bool",
          "name": "",
          "type": "bool"
        }
      ],
      "stateMutability": "view",
      "type": "function",
      "constant": true
    },
    {
      "inputs": [
        {
          "internalType": "uint256",
          "name": "marketId",
          "type": "uint256"
        },
        {
          "internalType": "uint256",
          "name": "itemId",
          "type": "uint256"
        }
      ],
      "name": "itemExist",
      "outputs": [
        {
          "internalType": "bool",
          "name": "",
          "type": "bool"
        }
      ],
      "stateMutability": "view",
      "type": "function",
      "constant": true
    },
    {
      "inputs": [
        {
          "internalType": "uint256",
          "name": "marketId",
          "type": "uint256"
        },
        {
          "internalType": "uint256",
          "name": "typeId",
          "type": "uint256"
        }
      ],
      "name": "itemTypeExist",
      "outputs": [
        {
          "internalType": "bool",
          "name": "",
          "type": "bool"
        }
      ],
      "stateMutability": "view",
      "type": "function",
      "constant": true
    },
    {
      "inputs": [
        {
          "internalType": "uint256",
          "name": "marketId",
          "type": "uint256"
        }
      ],
      "name": "marketExist",
      "outputs": [
        {
          "internalType": "bool",
          "name": "",
          "type": "bool"
        }
      ],
      "stateMutability": "view",
      "type": "function",
      "constant": true
    },
    {
      "inputs": [
        {
          "internalType": "uint256",
          "name": "",
          "type": "uint256"
        },
        {
          "internalType": "uint256",
          "name": "",
          "type": "uint256"
        }
      ],
      "name": "marketToItemToOwner",
      "outputs": [
        {
          "internalType": "address",
          "name": "",
          "type": "address"
        }
      ],
      "stateMutability": "view",
      "type": "function",
      "constant": true
    },
    {
      "inputs": [
        {
          "internalType": "uint256",
          "name": "",
          "type": "uint256"
        },
        {
          "internalType": "uint256",
          "name": "",
          "type": "uint256"
        }
      ],
      "name": "marketToItemTypes",
      "outputs": [
        {
          "internalType": "string",
          "name": "name",
          "type": "string"
        },
        {
          "internalType": "uint256",
          "name": "remainingSupply",
          "type": "uint256"
        },
        {
          "internalType": "uint256",
          "name": "totalSupply",
          "type": "uint256"
        },
        {
          "internalType": "bool",
          "name": "isFinal",
          "type": "bool"
        },
        {
          "internalType": "bool",
          "name": "allowSale",
          "type": "bool"
        },
        {
          "internalType": "bool",
          "name": "allowAuction",
          "type": "bool"
        },
        {
          "internalType": "bool",
          "name": "allowRent",
          "type": "bool"
        },
        {
          "internalType": "bool",
          "name": "allowLootbox",
          "type": "bool"
        }
      ],
      "stateMutability": "view",
      "type": "function",
      "constant": true
    },
    {
      "inputs": [
        {
          "internalType": "uint256",
          "name": "",
          "type": "uint256"
        },
        {
          "internalType": "uint256",
          "name": "",
          "type": "uint256"
        }
      ],
      "name": "marketToItems",
      "outputs": [
        {
          "internalType": "uint256",
          "name": "typeId",
          "type": "uint256"
        }
      ],
      "stateMutability": "view",
      "type": "function",
      "constant": true
    },
    {
      "inputs": [
        {
          "internalType": "uint256",
          "name": "",
          "type": "uint256"
        },
        {
          "internalType": "address",
          "name": "",
          "type": "address"
        }
      ],
      "name": "marketToUsersToItemsCount",
      "outputs": [
        {
          "internalType": "uint256",
          "name": "_value",
          "type": "uint256"
        }
      ],
      "stateMutability": "view",
      "type": "function",
      "constant": true
    },
    {
      "inputs": [
        {
          "internalType": "uint256",
          "name": "",
          "type": "uint256"
        }
      ],
      "name": "markets",
      "outputs": [
        {
          "internalType": "string",
          "name": "name",
          "type": "string"
        }
      ],
      "stateMutability": "view",
      "type": "function",
      "constant": true
    },
    {
      "inputs": [],
      "name": "owner",
      "outputs": [
        {
          "internalType": "address",
          "name": "",
          "type": "address"
        }
      ],
      "stateMutability": "view",
      "type": "function",
      "constant": true
    },
    {
      "inputs": [
        {
          "internalType": "uint256",
          "name": "marketId",
          "type": "uint256"
        }
      ],
      "name": "renounceMarketOwnership",
      "outputs": [],
      "stateMutability": "nonpayable",
      "type": "function"
    },
    {
      "inputs": [],
      "name": "renounceOwnership",
      "outputs": [],
      "stateMutability": "nonpayable",
      "type": "function"
    },
    {
      "inputs": [
        {
          "internalType": "uint256",
          "name": "marketId",
          "type": "uint256"
        },
        {
          "internalType": "uint256",
          "name": "itemId",
          "type": "uint256"
        },
        {
          "internalType": "address",
          "name": "to",
          "type": "address"
        }
      ],
      "name": "transferItemOwnership",
      "outputs": [],
      "stateMutability": "nonpayable",
      "type": "function"
    },
    {
      "inputs": [
        {
          "internalType": "uint256",
          "name": "marketId",
          "type": "uint256"
        },
        {
          "internalType": "address",
          "name": "newOwner",
          "type": "address"
        }
      ],
      "name": "transferMarketOwnership",
      "outputs": [],
      "stateMutability": "nonpayable",
      "type": "function"
    },
    {
      "inputs": [
        {
          "internalType": "address",
          "name": "newOwner",
          "type": "address"
        }
      ],
      "name": "transferOwnership",
      "outputs": [],
      "stateMutability": "nonpayable",
      "type": "function"
    },
    {
      "inputs": [],
      "name": "withdraw",
      "outputs": [],
      "stateMutability": "nonpayable",
      "type": "function"
    },
    {
      "stateMutability": "payable",
      "type": "receive",
      "payable": true
    },
    {
      "inputs": [
        {
          "internalType": "uint256",
          "name": "marketId",
          "type": "uint256"
        },
        {
          "internalType": "uint256[]",
          "name": "itemTypeIdArray",
          "type": "uint256[]"
        },
        {
          "internalType": "uint256",
          "name": "totalSupply",
          "type": "uint256"
        },
        {
          "internalType": "uint256",
          "name": "priceInWei",
          "type": "uint256"
        },
        {
          "internalType": "bool",
          "name": "enable",
          "type": "bool"
        }
      ],
      "name": "createSaleRelease",
      "outputs": [],
      "stateMutability": "nonpayable",
      "type": "function"
    },
    {
      "inputs": [
        {
          "internalType": "uint256",
          "name": "marketId",
          "type": "uint256"
        },
        {
          "internalType": "uint256",
          "name": "saleReleaseInnerId",
          "type": "uint256"
        }
      ],
      "name": "removeSaleRelease",
      "outputs": [],
      "stateMutability": "nonpayable",
      "type": "function"
    },
    {
      "inputs": [
        {
          "internalType": "uint256",
          "name": "marketId",
          "type": "uint256"
        },
        {
          "internalType": "uint256",
          "name": "saleReleaseInnerId",
          "type": "uint256"
        },
        {
          "internalType": "uint256",
          "name": "totalSupply",
          "type": "uint256"
        },
        {
          "internalType": "uint256",
          "name": "priceInWei",
          "type": "uint256"
        },
        {
          "internalType": "bool",
          "name": "enable",
          "type": "bool"
        }
      ],
      "name": "updateSaleRelease",
      "outputs": [],
      "stateMutability": "nonpayable",
      "type": "function"
    },
    {
      "inputs": [
        {
          "internalType": "uint256",
          "name": "marketId",
          "type": "uint256"
        },
        {
          "internalType": "uint256",
          "name": "saleReleaseInnerId",
          "type": "uint256"
        },
        {
          "internalType": "address",
          "name": "itemOwner",
          "type": "address"
        }
      ],
      "name": "buySaleRelease",
      "outputs": [],
      "stateMutability": "payable",
      "type": "function",
      "payable": true
    },
    {
      "inputs": [
        {
          "internalType": "uint256",
          "name": "marketIdToFound",
          "type": "uint256"
        },
        {
          "internalType": "uint256",
          "name": "saleReleaseInnerId",
          "type": "uint256"
        }
      ],
      "name": "getSaleRelease",
      "outputs": [
        {
          "internalType": "uint256",
          "name": "marketId",
          "type": "uint256"
        },
        {
          "internalType": "uint256",
          "name": "priceInWei",
          "type": "uint256"
        },
        {
          "internalType": "uint256",
          "name": "remainingSupply",
          "type": "uint256"
        },
        {
          "internalType": "uint256",
          "name": "totalSupply",
          "type": "uint256"
        },
        {
          "internalType": "bool",
          "name": "isFinal",
          "type": "bool"
        },
        {
          "internalType": "bool",
          "name": "enable",
          "type": "bool"
        },
        {
          "internalType": "uint256[]",
          "name": "itemTypeIdArray",
          "type": "uint256[]"
        }
      ],
      "stateMutability": "view",
      "type": "function",
      "constant": true
    },
    {
      "inputs": [
        {
          "internalType": "uint256",
          "name": "marketId",
          "type": "uint256"
        },
        {
          "internalType": "uint256",
          "name": "itemTypeId",
          "type": "uint256"
        }
      ],
      "name": "getSaleReleaseArrayForItemType",
      "outputs": [
        {
          "internalType": "uint256[]",
          "name": "",
          "type": "uint256[]"
        }
      ],
      "stateMutability": "view",
      "type": "function",
      "constant": true
    },
    {
      "inputs": [
        {
          "internalType": "uint256",
          "name": "marketId",
          "type": "uint256"
        },
        {
          "internalType": "uint256",
          "name": "saleReleaseInnerId",
          "type": "uint256"
        }
      ],
      "name": "saleReleaseExists",
      "outputs": [
        {
          "internalType": "bool",
          "name": "",
          "type": "bool"
        }
      ],
      "stateMutability": "view",
      "type": "function",
      "constant": true
    }
  ],
  "bytecode": "0x6080604052600062000016620000ba60201b60201c565b9050806000806101000a81548173ffffffffffffffffffffffffffffffffffffffff021916908373ffffffffffffffffffffffffffffffffffffffff1602179055508073ffffffffffffffffffffffffffffffffffffffff16600073ffffffffffffffffffffffffffffffffffffffff167f8be0079c531659141344cd1fd0a4f28419497f9722a3daafe3b4186f6b6457e060405160405180910390a350620000c2565b600033905090565b615ede80620000d26000396000f3fe6080604052600436106102085760003560e01c80638a4021bd11610118578063b1283e77116100a0578063cf30f56f1161006f578063cf30f56f14610fc2578063f2fde38b146110a0578063f373f048146110f1578063fc3ff7801461114a578063fcc08cd4146111b95761020f565b8063b1283e7714610daf578063b4c0c5de14610e63578063bb6b53bf14610ebb578063bfacba3d14610f0e5761020f565b80638f32d59b116100e75780638f32d59b14610b62578063a4a12e7414610b91578063a84fc48514610bf6578063ad661efe14610c53578063adae08dd14610d565761020f565b80638a4021bd146109da5780638bce7c3014610a335780638be5270214610ab85780638da5cb5b14610b0b5761020f565b80633d3690291161019b57806354888f551161016a57806354888f55146107c057806363a244111461089c5780636e7c17051461090b578063715018a6146109685780637cfc18181461097f5761020f565b80633d369029146105cf5780633f1fd7741461064a5780634bafae4f146107165780634e16ff681461075b5761020f565b8063320c4f98116101d7578063320c4f98146103b6578063380cb76e146104505780633b64a7b7146105535780633ccfd60b146105b85761020f565b806307309846146102115780630b3ed5a71461024c57806316090962146102a957806324416b17146103065761020f565b3661020f57005b005b34801561021d57600080fd5b5061024a6004803603602081101561023457600080fd5b810190808035906020019092919050505061123e565b005b34801561025857600080fd5b5061028f6004803603604081101561026f57600080fd5b8101908080359060200190929190803590602001909291905050506114bb565b604051808215151515815260200191505060405180910390f35b3480156102b557600080fd5b506102ec600480360360408110156102cc57600080fd5b81019080803590602001909291908035906020019092919050505061156b565b604051808215151515815260200191505060405180910390f35b34801561031257600080fd5b506103b4600480360360a081101561032957600080fd5b81019080803590602001909291908035906020019064010000000081111561035057600080fd5b82018360208201111561036257600080fd5b8035906020019184602083028401116401000000008311171561038457600080fd5b9091929391929390803590602001909291908035906020019092919080351515906020019092919050505061159f565b005b3480156103c257600080fd5b506103f9600480360360408110156103d957600080fd5b810190808035906020019092919080359060200190929190505050611a40565b6040518080602001828103825283818151815260200191508051906020019060200280838360005b8381101561043c578082015181840152602081019050610421565b505050509050019250505060405180910390f35b34801561045c57600080fd5b506104936004803603604081101561047357600080fd5b810190808035906020019092919080359060200190929190505050611d99565b6040518080602001898152602001888152602001871515151581526020018615151515815260200185151515158152602001841515151581526020018315151515815260200182810382528a818151815260200191508051906020019080838360005b838110156105115780820151818401526020810190506104f6565b50505050905090810190601f16801561053e5780820380516001836020036101000a031916815260200191505b50995050505050505050505060405180910390f35b34801561055f57600080fd5b506105b66004803603606081101561057657600080fd5b810190808035906020019092919080359060200190929190803573ffffffffffffffffffffffffffffffffffffffff169060200190929190505050611fd1565b005b3480156105c457600080fd5b506105cd6121b2565b005b3480156105db57600080fd5b50610608600480360360208110156105f257600080fd5b8101908080359060200190929190505050612282565b604051808273ffffffffffffffffffffffffffffffffffffffff1673ffffffffffffffffffffffffffffffffffffffff16815260200191505060405180910390f35b34801561065657600080fd5b5061068d6004803603604081101561066d57600080fd5b81019080803590602001909291908035906020019092919050505061231d565b60405180888152602001878152602001868152602001858152602001841515151581526020018315151515815260200180602001828103825283818151815260200191508051906020019060200280838360005b838110156106fc5780820151818401526020810190506106e1565b505050509050019850505050505050505060405180910390f35b34801561072257600080fd5b506107596004803603604081101561073957600080fd5b8101908080359060200190929190803590602001909291905050506125c7565b005b34801561076757600080fd5b506107be600480360360a081101561077e57600080fd5b8101908080359060200190929190803590602001909291908035906020019092919080359060200190929190803515159060200190929190505050612a51565b005b3480156107cc57600080fd5b50610886600480360360208110156107e357600080fd5b810190808035906020019064010000000081111561080057600080fd5b82018360208201111561081257600080fd5b8035906020019184600183028401116401000000008311171561083457600080fd5b91908080601f016020809104026020016040519081016040528093929190818152602001838380828437600081840152601f19601f820116905080830192505050505050509192919290505050612cbc565b6040518082815260200191505060405180910390f35b3480156108a857600080fd5b506108f5600480360360408110156108bf57600080fd5b8101908080359060200190929190803573ffffffffffffffffffffffffffffffffffffffff169060200190929190505050612e15565b6040518082815260200191505060405180910390f35b34801561091757600080fd5b5061094e6004803603604081101561092e57600080fd5b810190808035906020019092919080359060200190929190505050612e40565b604051808215151515815260200191505060405180910390f35b34801561097457600080fd5b5061097d612e74565b005b34801561098b57600080fd5b506109d8600480360360408110156109a257600080fd5b8101908080359060200190929190803573ffffffffffffffffffffffffffffffffffffffff169060200190929190505050612fad565b005b3480156109e657600080fd5b50610a1d600480360360408110156109fd57600080fd5b810190808035906020019092919080359060200190929190505050613315565b6040518082815260200191505060405180910390f35b348015610a3f57600080fd5b50610a7660048036036040811015610a5657600080fd5b810190808035906020019092919080359060200190929190505050613349565b604051808273ffffffffffffffffffffffffffffffffffffffff1673ffffffffffffffffffffffffffffffffffffffff16815260200191505060405180910390f35b348015610ac457600080fd5b50610af160048036036020811015610adb57600080fd5b810190808035906020019092919050505061338b565b604051808215151515815260200191505060405180910390f35b348015610b1757600080fd5b50610b2061339c565b604051808273ffffffffffffffffffffffffffffffffffffffff1673ffffffffffffffffffffffffffffffffffffffff16815260200191505060405180910390f35b348015610b6e57600080fd5b50610b776133c5565b604051808215151515815260200191505060405180910390f35b348015610b9d57600080fd5b50610be060048036036020811015610bb457600080fd5b81019080803573ffffffffffffffffffffffffffffffffffffffff169060200190929190505050613423565b6040518082815260200191505060405180910390f35b348015610c0257600080fd5b50610c3960048036036040811015610c1957600080fd5b810190808035906020019092919080359060200190929190505050613473565b604051808215151515815260200191505060405180910390f35b348015610c5f57600080fd5b50610c9660048036036040811015610c7657600080fd5b81019080803590602001909291908035906020019092919050505061354f565b6040518080602001898152602001888152602001871515151581526020018615151515815260200185151515158152602001841515151581526020018315151515815260200182810382528a818151815260200191508051906020019080838360005b83811015610d14578082015181840152602081019050610cf9565b50505050905090810190601f168015610d415780820380516001836020036101000a031916815260200191505b50995050505050505050505060405180910390f35b348015610d6257600080fd5b50610d9960048036036040811015610d7957600080fd5b81019080803590602001909291908035906020019092919050505061368a565b6040518082815260200191505060405180910390f35b348015610dbb57600080fd5b50610de860048036036020811015610dd257600080fd5b8101908080359060200190929190505050613853565b6040518080602001828103825283818151815260200191508051906020019080838360005b83811015610e28578082015181840152602081019050610e0d565b50505050905090810190601f168015610e555780820380516001836020036101000a031916815260200191505b509250505060405180910390f35b610eb960048036036060811015610e7957600080fd5b810190808035906020019092919080359060200190929190803573ffffffffffffffffffffffffffffffffffffffff169060200190929190505050613912565b005b348015610ec757600080fd5b50610ef460048036036020811015610ede57600080fd5b8101908080359060200190929190505050613df3565b604051808215151515815260200191505060405180910390f35b348015610f1a57600080fd5b50610f4760048036036020811015610f3157600080fd5b8101908080359060200190929190505050613ebc565b6040518080602001828103825283818151815260200191508051906020019080838360005b83811015610f87578082015181840152602081019050610f6c565b50505050905090810190601f168015610fb45780820380516001836020036101000a031916815260200191505b509250505060405180910390f35b348015610fce57600080fd5b5061108a600480360360e0811015610fe557600080fd5b81019080803590602001909291908035906020019064010000000081111561100c57600080fd5b82018360208201111561101e57600080fd5b8035906020019184600183028401116401000000008311171561104057600080fd5b909192939192939080359060200190929190803515159060200190929190803515159060200190929190803515159060200190929190803515159060200190929190505050613fdc565b6040518082815260200191505060405180910390f35b3480156110ac57600080fd5b506110ef600480360360208110156110c357600080fd5b81019080803573ffffffffffffffffffffffffffffffffffffffff169060200190929190505050614335565b005b3480156110fd57600080fd5b506111346004803603604081101561111457600080fd5b8101908080359060200190929190803590602001909291905050506143bb565b6040518082815260200191505060405180910390f35b34801561115657600080fd5b506111a36004803603604081101561116d57600080fd5b8101908080359060200190929190803573ffffffffffffffffffffffffffffffffffffffff169060200190929190505050614475565b6040518082815260200191505060405180910390f35b3480156111c557600080fd5b506111fc600480360360408110156111dc57600080fd5b8101908080359060200190929190803590602001909291905050506145ba565b604051808273ffffffffffffffffffffffffffffffffffffffff1673ffffffffffffffffffffffffffffffffffffffff16815260200191505060405180910390f35b806112488161338b565b6112ba576040517f08c379a00000000000000000000000000000000000000000000000000000000081526004018080602001828103825260158152602001807f4d61726b657420646f6573206e6f74206578697374000000000000000000000081525060200191505060405180910390fd5b3373ffffffffffffffffffffffffffffffffffffffff166002600083815260200190815260200160002060009054906101000a900473ffffffffffffffffffffffffffffffffffffffff1673ffffffffffffffffffffffffffffffffffffffff161461138e576040517f08c379a00000000000000000000000000000000000000000000000000000000081526004018080602001828103825260178152602001807f43616c6c6572206973206e6f7420746865206f776e657200000000000000000081525060200191505060405180910390fd5b600073ffffffffffffffffffffffffffffffffffffffff166002600084815260200190815260200160002060009054906101000a900473ffffffffffffffffffffffffffffffffffffffff1673ffffffffffffffffffffffffffffffffffffffff16837f2db5f9b069d085fba50688059d869a45ac805a9f56fe633ca94e0c306f25f30560405160405180910390a4611464600360003373ffffffffffffffffffffffffffffffffffffffff1673ffffffffffffffffffffffffffffffffffffffff168152602001908152602001600020614668565b60006002600084815260200190815260200160002060006101000a81548173ffffffffffffffffffffffffffffffffffffffff021916908373ffffffffffffffffffffffffffffffffffffffff1602179055505050565b60006009600084815260200190815260200160002073__SaleReleaseDataList___________________630474423a9091846040518363ffffffff1660e01b8152600401808381526020018281526020019250505060206040518083038186803b15801561152857600080fd5b505af415801561153c573d6000803e3d6000fd5b505050506040513d602081101561155257600080fd5b8101908080519060200190929190505050905092915050565b60006115768361338b565b80156115975750816004600085815260200190815260200160002080549050115b905092915050565b856115a98161338b565b61161b576040517f08c379a00000000000000000000000000000000000000000000000000000000081526004018080602001828103825260158152602001807f4d61726b657420646f6573206e6f74206578697374000000000000000000000081525060200191505060405180910390fd5b3373ffffffffffffffffffffffffffffffffffffffff166002600083815260200190815260200160002060009054906101000a900473ffffffffffffffffffffffffffffffffffffffff1673ffffffffffffffffffffffffffffffffffffffff16146116ef576040517f08c379a00000000000000000000000000000000000000000000000000000000081526004018080602001828103825260178152602001807f43616c6c6572206973206e6f7420746865206f776e657200000000000000000081525060200191505060405180910390fd5b6000868690501161174b576040517f08c379a000000000000000000000000000000000000000000000000000000000815260040180806020018281038252602d815260200180615df0602d913960400191505060405180910390fd5b60008090505b868690508110156117d8576117788888888481811061176c57fe5b9050602002013561156b565b6117cd576040517f08c379a0000000000000000000000000000000000000000000000000000000008152600401808060200182810382526024815260200180615d396024913960400191505060405180910390fd5b806001019050611751565b506000808511905060006118b76040518061010001604052808b8152602001878152602001888152602001888152602001841515815260200186151581526020018a8a80806020026020016040519081016040528093929190818152602001838360200280828437600081840152601f19601f8201169050808301925050505050505081526020018a8a90506040519080825280602002602001820160405280156118925781602001602082028036833780820191505090505b50815250600960008c815260200190815260200160002061468b90919063ffffffff16565b905080915050600080600960008c815260200190815260200160002073__SaleReleaseDataList___________________63eb504c879091856040518363ffffffff1660e01b8152600401808381526020018281526020019250505060006040518083038186803b15801561192b57600080fd5b505af415801561193f573d6000803e3d6000fd5b505050506040513d6000823e3d601f19601f82011682018060405250602081101561196957600080fd5b8101908080519060200190929190505050905060008090505b8a8a9050811015611a04576119d584600860008f815260200190815260200160002060008e8e868181106119b257fe5b90506020020135815260200190815260200160002061474790919063ffffffff16565b905080935050828260060182815481106119eb57fe5b9060005260206000200181905550806001019050611982565b50828b7f10dc4d4676f6c21b9013aadb922c721c1e8443eced07fccbf1dc97cbca7ff72e60405160405180910390a35050505050505050505050565b60608282611a4e828261156b565b611aa3576040517f08c379a000000000000000000000000000000000000000000000000000000000815260040180806020018281038252602a815260200180615d5d602a913960400191505060405180910390fd5b6000600860008781526020019081526020016000206000868152602001908152602001600020905060008173__ListUint256___________________________632214c5a790916040518263ffffffff1660e01b81526004018082815260200191505060206040518083038186803b158015611b1e57600080fd5b505af4158015611b32573d6000803e3d6000fd5b505050506040513d6020811015611b4857600080fd5b81019080805190602001909291905050509050606081604051908082528060200260200182016040528015611b8c5781602001602082028036833780820191505090505b50905060008373__ListUint256___________________________6316708469909160006040518363ffffffff1660e01b8152600401808381526020018281526020019250505060206040518083038186803b158015611beb57600080fd5b505af4158015611bff573d6000803e3d6000fd5b505050506040513d6020811015611c1557600080fd5b8101908080519060200190929190505050905060008090505b83811015611d895760008573__ListUint256___________________________637b323b839091856040518363ffffffff1660e01b8152600401808381526020018281526020019250505060206040518083038186803b158015611c9157600080fd5b505af4158015611ca5573d6000803e3d6000fd5b505050506040513d6020811015611cbb57600080fd5b8101908080519060200190929190505050905080848381518110611cdb57fe5b6020026020010181815250508573__ListUint256___________________________63167084699091856040518363ffffffff1660e01b8152600401808381526020018281526020019250505060206040518083038186803b158015611d4057600080fd5b505af4158015611d54573d6000803e3d6000fd5b505050506040513d6020811015611d6a57600080fd5b8101908080519060200190929190505050925050806001019050611c2e565b5081965050505050505092915050565b606060008060008060008060008989611db2828261156b565b611e07576040517f08c379a000000000000000000000000000000000000000000000000000000000815260040180806020018281038252602a815260200180615d5d602a913960400191505060405180910390fd5b611e0f615ac7565b600460008e81526020019081526020016000208c81548110611e2d57fe5b906000526020600020906004020160405180610100016040529081600082018054600181600116156101000203166002900480601f016020809104026020016040519081016040528092919081815260200182805460018160011615610100020316600290048015611ee05780601f10611eb557610100808354040283529160200191611ee0565b820191906000526020600020905b815481529060010190602001808311611ec357829003601f168201915b5050505050815260200160018201548152602001600282015481526020016003820160009054906101000a900460ff161515151581526020016003820160019054906101000a900460ff161515151581526020016003820160029054906101000a900460ff161515151581526020016003820160039054906101000a900460ff161515151581526020016003820160049054906101000a900460ff1615151515815250509050806000015181602001518260400151836060015184608001518560a001518660c001518760e001518797509a509a509a509a509a509a509a509a505050509295985092959890939650565b8282611fdd8282612e40565b612032576040517f08c379a0000000000000000000000000000000000000000000000000000000008152600401808060200182810382526025815260200180615e506025913960400191505060405180910390fd5b3373ffffffffffffffffffffffffffffffffffffffff1660076000848152602001908152602001600020600083815260200190815260200160002060009054906101000a900473ffffffffffffffffffffffffffffffffffffffff1673ffffffffffffffffffffffffffffffffffffffff16146120fa576040517f08c379a0000000000000000000000000000000000000000000000000000000008152600401808060200182810382526021815260200180615cd66021913960400191505060405180910390fd5b82600073ffffffffffffffffffffffffffffffffffffffff168173ffffffffffffffffffffffffffffffffffffffff16141561219e576040517f08c379a00000000000000000000000000000000000000000000000000000000081526004018080602001828103825260208152602001807f436865636b4164647265737320697320746865207a65726f206164647265737381525060200191505060405180910390fd5b6121aa86863387614803565b505050505050565b6121ba6133c5565b61222c576040517f08c379a00000000000000000000000000000000000000000000000000000000081526004018080602001828103825260208152602001807f4f776e61626c653a2063616c6c6572206973206e6f7420746865206f776e657281525060200191505060405180910390fd5b600061223661339c565b90508073ffffffffffffffffffffffffffffffffffffffff166108fc479081150290604051600060405180830381858888f1935050505015801561227e573d6000803e3d6000fd5b5050565b600061228d8261338b565b6122e2576040517f08c379a0000000000000000000000000000000000000000000000000000000008152600401808060200182810382526021815260200180615cf76021913960400191505060405180910390fd5b6002600083815260200190815260200160002060009054906101000a900473ffffffffffffffffffffffffffffffffffffffff169050919050565b6000806000806000806060888861233482826114bb565b6123a6576040517f08c379a000000000000000000000000000000000000000000000000000000000815260040180806020018281038252601b8152602001807f53616c6552656c6561736520646f6573206e6f7420657869737473000000000081525060200191505060405180910390fd5b6123ae615b16565b600960008d815260200190815260200160002073__SaleReleaseDataList___________________63eb504c8790918d6040518363ffffffff1660e01b8152600401808381526020018281526020019250505060006040518083038186803b15801561241957600080fd5b505af415801561242d573d6000803e3d6000fd5b505050506040513d6000823e3d601f19601f82011682018060405250602081101561245757600080fd5b810190808051906020019092919050505060405180610100016040529081600082015481526020016001820154815260200160028201548152602001600382015481526020016004820160009054906101000a900460ff161515151581526020016004820160019054906101000a900460ff161515151581526020016005820180548060200260200160405190810160405280929190818152602001828054801561252157602002820191906000526020600020905b81548152602001906001019080831161250d575b505050505081526020016006820180548060200260200160405190810160405280929190818152602001828054801561257957602002820191906000526020600020905b815481526020019060010190808311612565575b5050505050815250509050806000015181602001518260400151836060015184608001518560a001518660c00151809050995099509950995099509950995050505092959891949750929550565b816125d18161338b565b612643576040517f08c379a00000000000000000000000000000000000000000000000000000000081526004018080602001828103825260158152602001807f4d61726b657420646f6573206e6f74206578697374000000000000000000000081525060200191505060405180910390fd5b3373ffffffffffffffffffffffffffffffffffffffff166002600083815260200190815260200160002060009054906101000a900473ffffffffffffffffffffffffffffffffffffffff1673ffffffffffffffffffffffffffffffffffffffff1614612717576040517f08c379a00000000000000000000000000000000000000000000000000000000081526004018080602001828103825260178152602001807f43616c6c6572206973206e6f7420746865206f776e657200000000000000000081525060200191505060405180910390fd5b828261272382826114bb565b612795576040517f08c379a000000000000000000000000000000000000000000000000000000000815260040180806020018281038252601b8152602001807f53616c6552656c6561736520646f6573206e6f7420657869737473000000000081525060200191505060405180910390fd5b61279d615b16565b6009600087815260200190815260200160002073__SaleReleaseDataList___________________63eb504c879091876040518363ffffffff1660e01b8152600401808381526020018281526020019250505060006040518083038186803b15801561280857600080fd5b505af415801561281c573d6000803e3d6000fd5b505050506040513d6000823e3d601f19601f82011682018060405250602081101561284657600080fd5b810190808051906020019092919050505060405180610100016040529081600082015481526020016001820154815260200160028201548152602001600382015481526020016004820160009054906101000a900460ff161515151581526020016004820160019054906101000a900460ff161515151581526020016005820180548060200260200160405190810160405280929190818152602001828054801561291057602002820191906000526020600020905b8154815260200190600101908083116128fc575b505050505081526020016006820180548060200260200160405190810160405280929190818152602001828054801561296857602002820191906000526020600020905b815481526020019060010190808311612954575b505050505081525050905060008090505b8160c00151518110156129f5576129ea8260e00151828151811061299957fe5b6020026020010151600860008a815260200190815260200160002060008560c0015185815181106129c657fe5b60200260200101518152602001908152602001600020614bd390919063ffffffff16565b806001019050612979565b50612a1b8560096000898152602001908152602001600020614d4790919063ffffffff16565b84867f2f762ee004b9ff8b61a844362a6d15a0ffa899daa02d97928b211ec2df9c4b7d60405160405180910390a3505050505050565b84612a5b8161338b565b612acd576040517f08c379a00000000000000000000000000000000000000000000000000000000081526004018080602001828103825260158152602001807f4d61726b657420646f6573206e6f74206578697374000000000000000000000081525060200191505060405180910390fd5b3373ffffffffffffffffffffffffffffffffffffffff166002600083815260200190815260200160002060009054906101000a900473ffffffffffffffffffffffffffffffffffffffff1673ffffffffffffffffffffffffffffffffffffffff1614612ba1576040517f08c379a00000000000000000000000000000000000000000000000000000000081526004018080602001828103825260178152602001807f43616c6c6572206973206e6f7420746865206f776e657200000000000000000081525060200191505060405180910390fd5b8585612bad82826114bb565b612c1f576040517f08c379a000000000000000000000000000000000000000000000000000000000815260040180806020018281038252601b8152602001807f53616c6552656c6561736520646f6573206e6f7420657869737473000000000081525060200191505060405180910390fd5b6000612c2b8989614ebb565b9050858160010181905550868160020181905550868160030181905550600087118160040160006101000a81548160ff021916908315150217905550848160040160016101000a81548160ff02191690831515021790555087897fa1cb4c20d9583e1afc1bd5adb628dc27a5fafbdbafb83723a7e5a6eebb18650060405160405180910390a3505050505050505050565b60006001604051806020016040528084815250908060018154018082558091505060019003906000526020600020016000909190919091506000820151816000019080519060200190612d10929190615b5f565b5050506000612d2d60018080549050614f7f90919063ffffffff16565b9050336002600083815260200190815260200160002060006101000a81548173ffffffffffffffffffffffffffffffffffffffff021916908373ffffffffffffffffffffffffffffffffffffffff160217905550612dc8600360003373ffffffffffffffffffffffffffffffffffffffff1673ffffffffffffffffffffffffffffffffffffffff168152602001908152602001600020614fc9565b3373ffffffffffffffffffffffffffffffffffffffff16817fd301e501188d220cc44d05fa5ee3c14454746932c7d6598933e7fddc78bea7f060405160405180910390a380915050919050565b6006602052816000526040600020602052806000526040600020600091509150508060000154905081565b6000612e4b8361338b565b8015612e6c5750816005600085815260200190815260200160002080549050115b905092915050565b612e7c6133c5565b612eee576040517f08c379a00000000000000000000000000000000000000000000000000000000081526004018080602001828103825260208152602001807f4f776e61626c653a2063616c6c6572206973206e6f7420746865206f776e657281525060200191505060405180910390fd5b600073ffffffffffffffffffffffffffffffffffffffff166000809054906101000a900473ffffffffffffffffffffffffffffffffffffffff1673ffffffffffffffffffffffffffffffffffffffff167f8be0079c531659141344cd1fd0a4f28419497f9722a3daafe3b4186f6b6457e060405160405180910390a360008060006101000a81548173ffffffffffffffffffffffffffffffffffffffff021916908373ffffffffffffffffffffffffffffffffffffffff160217905550565b81612fb78161338b565b613029576040517f08c379a00000000000000000000000000000000000000000000000000000000081526004018080602001828103825260158152602001807f4d61726b657420646f6573206e6f74206578697374000000000000000000000081525060200191505060405180910390fd5b3373ffffffffffffffffffffffffffffffffffffffff166002600083815260200190815260200160002060009054906101000a900473ffffffffffffffffffffffffffffffffffffffff1673ffffffffffffffffffffffffffffffffffffffff16146130fd576040517f08c379a00000000000000000000000000000000000000000000000000000000081526004018080602001828103825260178152602001807f43616c6c6572206973206e6f7420746865206f776e657200000000000000000081525060200191505060405180910390fd5b81600073ffffffffffffffffffffffffffffffffffffffff168173ffffffffffffffffffffffffffffffffffffffff1614156131a1576040517f08c379a00000000000000000000000000000000000000000000000000000000081526004018080602001828103825260208152602001807f436865636b4164647265737320697320746865207a65726f206164647265737381525060200191505060405180910390fd5b8273ffffffffffffffffffffffffffffffffffffffff166002600086815260200190815260200160002060009054906101000a900473ffffffffffffffffffffffffffffffffffffffff1673ffffffffffffffffffffffffffffffffffffffff16857f2db5f9b069d085fba50688059d869a45ac805a9f56fe633ca94e0c306f25f30560405160405180910390a4826002600086815260200190815260200160002060006101000a81548173ffffffffffffffffffffffffffffffffffffffff021916908373ffffffffffffffffffffffffffffffffffffffff1602179055506132c8600360003373ffffffffffffffffffffffffffffffffffffffff1673ffffffffffffffffffffffffffffffffffffffff168152602001908152602001600020614668565b61330f600360008573ffffffffffffffffffffffffffffffffffffffff1673ffffffffffffffffffffffffffffffffffffffff168152602001908152602001600020614fc9565b50505050565b6005602052816000526040600020818154811061332e57fe5b90600052602060002001600091509150508060000154905081565b60076020528160005260406000206020528060005260406000206000915091509054906101000a900473ffffffffffffffffffffffffffffffffffffffff1681565b600081600180549050119050919050565b60008060009054906101000a900473ffffffffffffffffffffffffffffffffffffffff16905090565b60008060009054906101000a900473ffffffffffffffffffffffffffffffffffffffff1673ffffffffffffffffffffffffffffffffffffffff16613407614fdf565b73ffffffffffffffffffffffffffffffffffffffff1614905090565b600061346c600360008473ffffffffffffffffffffffffffffffffffffffff1673ffffffffffffffffffffffffffffffffffffffff168152602001908152602001600020614fe7565b9050919050565b600061347f8383612e40565b6134d4576040517f08c379a0000000000000000000000000000000000000000000000000000000008152600401808060200182810382526025815260200180615e506025913960400191505060405180910390fd5b3373ffffffffffffffffffffffffffffffffffffffff1660076000858152602001908152602001600020600084815260200190815260200160002060009054906101000a900473ffffffffffffffffffffffffffffffffffffffff1673ffffffffffffffffffffffffffffffffffffffff1614905092915050565b6004602052816000526040600020818154811061356857fe5b906000526020600020906004020160009150915050806000018054600181600116156101000203166002900480601f0160208091040260200160405190810160405280929190818152602001828054600181600116156101000203166002900480156136155780601f106135ea57610100808354040283529160200191613615565b820191906000526020600020905b8154815290600101906020018083116135f857829003601f168201915b5050505050908060010154908060020154908060030160009054906101000a900460ff16908060030160019054906101000a900460ff16908060030160029054906101000a900460ff16908060030160039054906101000a900460ff16908060030160049054906101000a900460ff16905088565b6000826136968161338b565b613708576040517f08c379a00000000000000000000000000000000000000000000000000000000081526004018080602001828103825260158152602001807f4d61726b657420646f6573206e6f74206578697374000000000000000000000081525060200191505060405180910390fd5b3373ffffffffffffffffffffffffffffffffffffffff166002600083815260200190815260200160002060009054906101000a900473ffffffffffffffffffffffffffffffffffffffff1673ffffffffffffffffffffffffffffffffffffffff16146137dc576040517f08c379a00000000000000000000000000000000000000000000000000000000081526004018080602001828103825260178152602001807f43616c6c6572206973206e6f7420746865206f776e657200000000000000000081525060200191505060405180910390fd5b83836137e8828261156b565b61383d576040517f08c379a000000000000000000000000000000000000000000000000000000000815260040180806020018281038252602a815260200180615d5d602a913960400191505060405180910390fd5b613848868633614ff5565b935050505092915050565b6001818154811061386057fe5b90600052602060002001600091509050806000018054600181600116156101000203166002900480601f0160208091040260200160405190810160405280929190818152602001828054600181600116156101000203166002900480156139085780601f106138dd57610100808354040283529160200191613908565b820191906000526020600020905b8154815290600101906020018083116138eb57829003601f168201915b5050505050905081565b828261391e82826114bb565b613990576040517f08c379a000000000000000000000000000000000000000000000000000000000815260040180806020018281038252601b8152602001807f53616c6552656c6561736520646f6573206e6f7420657869737473000000000081525060200191505060405180910390fd5b600061399c8686614ebb565b90508060040160019054906101000a900460ff16613a05576040517f08c379a0000000000000000000000000000000000000000000000000000000008152600401808060200182810382526021815260200180615d186021913960400191505060405180910390fd5b8060010154341015613a7f576040517f08c379a00000000000000000000000000000000000000000000000000000000081526004018080602001828103825260208152602001807f4e6f7420656e6f7567682065746820666f72206275792074686973206974656d81525060200191505060405180910390fd5b613ba28160405180610100016040529081600082015481526020016001820154815260200160028201548152602001600382015481526020016004820160009054906101000a900460ff161515151581526020016004820160019054906101000a900460ff1615151515815260200160058201805480602002602001604051908101604052809291908181526020018280548015613b3c57602002820191906000526020600020905b815481526020019060010190808311613b28575b5050505050815260200160068201805480602002602001604051908101604052809291908181526020018280548015613b9457602002820191906000526020600020905b815481526020019060010190808311613b80575b505050505081525050615204565b613bf7576040517f08c379a0000000000000000000000000000000000000000000000000000000008152600401808060200182810382526024815260200180615cb26024913960400191505060405180910390fd5b613c0081615240565b60608160050180549050604051908082528060200260200182016040528015613c385781602001602082028036833780820191505090505b5090506002600088815260200190815260200160002060009054906101000a900473ffffffffffffffffffffffffffffffffffffffff1673ffffffffffffffffffffffffffffffffffffffff166108fc83600101549081150290604051600060405180830381858888f19350505050158015613cb8573d6000803e3d6000fd5b508160010154341115613d13573373ffffffffffffffffffffffffffffffffffffffff166108fc836001015434039081150290604051600060405180830381858888f19350505050158015613d11573d6000803e3d6000fd5b505b60008090505b8260050180549050811015613d6f57613d4c88846005018381548110613d3b57fe5b906000526020600020015488614ff5565b828281518110613d5857fe5b602002602001018181525050806001019050613d19565b5085877fb94313673678acfdc1de0b90f605638c1068cce8f53a15a0702abf6cf709ca37836040518080602001828103825283818151815260200191508051906020019060200280838360005b83811015613dd7578082015181840152602081019050613dbc565b505050509050019250505060405180910390a350505050505050565b6000613dfe8261338b565b613e53576040517f08c379a0000000000000000000000000000000000000000000000000000000008152600401808060200182810382526021815260200180615cf76021913960400191505060405180910390fd5b3373ffffffffffffffffffffffffffffffffffffffff166002600084815260200190815260200160002060009054906101000a900473ffffffffffffffffffffffffffffffffffffffff1673ffffffffffffffffffffffffffffffffffffffff16149050919050565b6060613ec78261338b565b613f1c576040517f08c379a0000000000000000000000000000000000000000000000000000000008152600401808060200182810382526021815260200180615cf76021913960400191505060405180910390fd5b600060018381548110613f2b57fe5b906000526020600020019050806000018054600181600116156101000203166002900480601f016020809104026020016040519081016040528092919081815260200182805460018160011615610100020316600290048015613fcf5780601f10613fa457610100808354040283529160200191613fcf565b820191906000526020600020905b815481529060010190602001808311613fb257829003601f168201915b5050505050915050919050565b600088613fe88161338b565b61405a576040517f08c379a00000000000000000000000000000000000000000000000000000000081526004018080602001828103825260158152602001807f4d61726b657420646f6573206e6f74206578697374000000000000000000000081525060200191505060405180910390fd5b3373ffffffffffffffffffffffffffffffffffffffff166002600083815260200190815260200160002060009054906101000a900473ffffffffffffffffffffffffffffffffffffffff1673ffffffffffffffffffffffffffffffffffffffff161461412e576040517f08c379a00000000000000000000000000000000000000000000000000000000081526004018080602001828103825260178152602001807f43616c6c6572206973206e6f7420746865206f776e657200000000000000000081525060200191505060405180910390fd5b600460008b81526020019081526020016000206040518061010001604052808b8b8080601f016020809104026020016040519081016040528093929190818152602001838380828437600081840152601f19601f82011690508083019250505050505050815260200189815260200189815260200160008a111515815260200188151581526020018715158152602001861515815260200185151581525090806001815401808255809150506001900390600052602060002090600402016000909190919091506000820151816000019080519060200190614211929190615b5f565b50602082015181600101556040820151816002015560608201518160030160006101000a81548160ff02191690831515021790555060808201518160030160016101000a81548160ff02191690831515021790555060a08201518160030160026101000a81548160ff02191690831515021790555060c08201518160030160036101000a81548160ff02191690831515021790555060e08201518160030160046101000a81548160ff021916908315150217905550505060006142f46001600460008e815260200190815260200160002080549050614f7f90919063ffffffff16565b9050808b7f7934e0f5d948c4a79a3febe9190e48f7c9017e7655c1f47105f8478ef984102a60405160405180910390a3809250505098975050505050505050565b61433d6133c5565b6143af576040517f08c379a00000000000000000000000000000000000000000000000000000000081526004018080602001828103825260208152602001807f4f776e61626c653a2063616c6c6572206973206e6f7420746865206f776e657281525060200191505060405180910390fd5b6143b88161529c565b50565b600082826143c98282612e40565b61441e576040517f08c379a0000000000000000000000000000000000000000000000000000000008152600401808060200182810382526025815260200180615e506025913960400191505060405180910390fd5b614426615bdf565b60056000878152602001908152602001600020858154811061444457fe5b9060005260206000200160405180602001604052908160008201548152505090508060000151935050505092915050565b60008073ffffffffffffffffffffffffffffffffffffffff168273ffffffffffffffffffffffffffffffffffffffff1614156144fc576040517f08c379a0000000000000000000000000000000000000000000000000000000008152600401808060200182810382526042815260200180615d876042913960600191505060405180910390fd5b6145058361338b565b61455a576040517f08c379a0000000000000000000000000000000000000000000000000000000008152600401808060200182810382526027815260200180615c656027913960400191505060405180910390fd5b6145b26006600085815260200190815260200160002060008473ffffffffffffffffffffffffffffffffffffffff1673ffffffffffffffffffffffffffffffffffffffff168152602001908152602001600020614fe7565b905092915050565b60006145c68383612e40565b61461b576040517f08c379a000000000000000000000000000000000000000000000000000000000815260040180806020018281038252602a815260200180615d5d602a913960400191505060405180910390fd5b60076000848152602001908152602001600020600083815260200190815260200160002060009054906101000a900473ffffffffffffffffffffffffffffffffffffffff16905092915050565b61468060018260000154614f7f90919063ffffffff16565b816000018190555050565b600080600061469a85856153e0565b90506146a58561561b565b6146b757808560000181905550614713565b808560060160008760010154815260200190815260200160002060070160006001151515158152602001908152602001600020819055506147128560060160008381526020019081526020016000208660010154600061562b565b5b600061472186600401614fe7565b905081866001018190555061473886600401614fc9565b80829350935050509250929050565b6000806000614756858561566d565b905061476185615762565b614773578085600001819055506147cf565b808560060160008760010154815260200190815260200160002060010160006001151515158152602001908152602001600020819055506147ce85600601600083815260200190815260200160002086600101546000615772565b5b60006147dd86600401614fe7565b90508186600101819055506147f486600401614fc9565b80829350935050509250929050565b80600073ffffffffffffffffffffffffffffffffffffffff168173ffffffffffffffffffffffffffffffffffffffff1614156148a7576040517f08c379a00000000000000000000000000000000000000000000000000000000081526004018080602001828103825260208152602001807f436865636b4164647265737320697320746865207a65726f206164647265737381525060200191505060405180910390fd5b8173ffffffffffffffffffffffffffffffffffffffff168373ffffffffffffffffffffffffffffffffffffffff16141561492c576040517f08c379a0000000000000000000000000000000000000000000000000000000008152600401808060200182810382526033815260200180615e1d6033913960400191505060405180910390fd5b6149368585612e40565b61498b576040517f08c379a0000000000000000000000000000000000000000000000000000000008152600401808060200182810382526025815260200180615e506025913960400191505060405180910390fd5b8273ffffffffffffffffffffffffffffffffffffffff1660076000878152602001908152602001600020600086815260200190815260200160002060009054906101000a900473ffffffffffffffffffffffffffffffffffffffff1673ffffffffffffffffffffffffffffffffffffffff1614614a53576040517f08c379a0000000000000000000000000000000000000000000000000000000008152600401808060200182810382526021815260200180615cd66021913960400191505060405180910390fd5b614aab6006600087815260200190815260200160002060008573ffffffffffffffffffffffffffffffffffffffff1673ffffffffffffffffffffffffffffffffffffffff168152602001908152602001600020614668565b614b036006600087815260200190815260200160002060008473ffffffffffffffffffffffffffffffffffffffff1673ffffffffffffffffffffffffffffffffffffffff168152602001908152602001600020614fc9565b8160076000878152602001908152602001600020600086815260200190815260200160002060006101000a81548173ffffffffffffffffffffffffffffffffffffffff021916908373ffffffffffffffffffffffffffffffffffffffff1602179055508173ffffffffffffffffffffffffffffffffffffffff168373ffffffffffffffffffffffffffffffffffffffff16867f297028ce8af626c92b0bd8baa9fb2ab9a78677c4a12fac9d68113eb9d27208c7876040518082815260200191505060405180910390a45050505050565b60008260060160008381526020019081526020016000206001016000600115151515815260200190815260200160002054905060008360060160008481526020019081526020016000206001016000801515151581526020019081526020016000205490508360010154831415614c4e578084600101819055505b8360000154831415614c6857818460000181905550614cd7565b81846006016000838152602001908152602001600020600101600060011515151581526020019081526020016000208190555060008214614cd65780846006016000848152602001908152602001600020600101600080151515158152602001908152602001600020819055505b5b828460050160008660020154815260200190815260200160002081905550614d0d600185600201546157b490919063ffffffff16565b8460020181905550614d35846006016000858152602001908152602001600020600080615772565b614d4184600401614668565b50505050565b60008260060160008381526020019081526020016000206007016000600115151515815260200190815260200160002054905060008360060160008481526020019081526020016000206007016000801515151581526020019081526020016000205490508360010154831415614dc2578084600101819055505b8360000154831415614ddc57818460000181905550614e4b565b81846006016000838152602001908152602001600020600701600060011515151581526020019081526020016000208190555060008214614e4a5780846006016000848152602001908152602001600020600701600080151515158152602001908152602001600020819055505b5b828460050160008660020154815260200190815260200160002081905550614e81600185600201546157b490919063ffffffff16565b8460020181905550614ea984600601600085815260200190815260200160002060008061562b565b614eb584600401614668565b50505050565b60006009600084815260200190815260200160002073__SaleReleaseDataList___________________63eb504c879091846040518363ffffffff1660e01b8152600401808381526020018281526020019250505060006040518083038186803b158015614f2857600080fd5b505af4158015614f3c573d6000803e3d6000fd5b505050506040513d6000823e3d601f19601f820116820180604052506020811015614f6657600080fd5b8101908080519060200190929190505050905092915050565b6000614fc183836040518060400160405280601e81526020017f536166654d6174683a207375627472616374696f6e206f766572666c6f77000081525061583c565b905092915050565b6001816000016000828254019250508190555050565b600033905090565b600081600001549050919050565b60008060046000868152602001908152602001600020848154811061501657fe5b9060005260206000209060040201905061502f816158fc565b615084576040517f08c379a0000000000000000000000000000000000000000000000000000000008152600401808060200182810382526034815260200180615e756034913960400191505060405180910390fd5b6005600086815260200190815260200160002060405180602001604052808681525090806001815401808255809150506001900390600052602060002001600090919091909150600082015181600001555050600061510360016005600089815260200190815260200160002080549050614f7f90919063ffffffff16565b905061515d6006600088815260200190815260200160002060008673ffffffffffffffffffffffffffffffffffffffff1673ffffffffffffffffffffffffffffffffffffffff168152602001908152602001600020614fc9565b8360076000888152602001908152602001600020600083815260200190815260200160002060006101000a81548173ffffffffffffffffffffffffffffffffffffffff021916908373ffffffffffffffffffffffffffffffffffffffff1602179055506151c982615927565b8085877fe4c069d6d656e522b253bfc665628b0926e17c426d278d9025aa33d46a53802060405160405180910390a480925050509392505050565b60008160a001518015615228575081608001511580615227575060008260400151115b5b8015615239575060008260c0015151115b9050919050565b8060040160019054906101000a900460ff16801561526c57508060040160009054906101000a900460ff165b801561527c575060008160020154115b156152995761529081600201546001614f7f565b81600201819055505b50565b600073ffffffffffffffffffffffffffffffffffffffff168173ffffffffffffffffffffffffffffffffffffffff161415615322576040517f08c379a0000000000000000000000000000000000000000000000000000000008152600401808060200182810382526026815260200180615c8c6026913960400191505060405180910390fd5b8073ffffffffffffffffffffffffffffffffffffffff166000809054906101000a900473ffffffffffffffffffffffffffffffffffffffff1673ffffffffffffffffffffffffffffffffffffffff167f8be0079c531659141344cd1fd0a4f28419497f9722a3daafe3b4186f6b6457e060405160405180910390a3806000806101000a81548173ffffffffffffffffffffffffffffffffffffffff021916908373ffffffffffffffffffffffffffffffffffffffff16021790555050565b60006153eb83615969565b6000809050600084600201541115615515578360050160006001866002015403815260200190815260200160002054905061543460018560020154614f7f90919063ffffffff16565b84600201819055506040518060200160405280848152508460060160008381526020019081526020016000206000820151816000016000820151816000015560208201518160010155604082015181600201556060820151816003015560808201518160040160006101000a81548160ff02191690831515021790555060a08201518160040160016101000a81548160ff02191690831515021790555060c08201518160050190805190602001906154ed929190615bf2565b5060e082015181600601908051906020019061550a929190615bf2565b505050905050615611565b83600301549050615534600185600301546157b490919063ffffffff16565b84600301819055506040518060200160405280848152508460060160008381526020019081526020016000206000820151816000016000820151816000015560208201518160010155604082015181600201556060820151816003015560808201518160040160006101000a81548160ff02191690831515021790555060a08201518160040160016101000a81548160ff02191690831515021790555060c08201518160050190805190602001906155ed929190615bf2565b5060e082015181600601908051906020019061560a929190615bf2565b5050509050505b8091505092915050565b6000808260000154119050919050565b80836007016000600115151515815260200190815260200160002081905550818360070160008015151515815260200190815260200160002081905550505050565b600061567883615a18565b60008090506000846002015411156156ff57836005016000600186600201540381526020019081526020016000205490506156c160018560020154614f7f90919063ffffffff16565b846002018190555060405180602001604052808481525084600601600083815260200190815260200160002060008201518160000155905050615758565b8360030154905061571e600185600301546157b490919063ffffffff16565b8460030181905550604051806020016040528084815250846006016000838152602001908152602001600020600082015181600001559050505b8091505092915050565b6000808260000154119050919050565b80836001016000600115151515815260200190815260200160002081905550818360010160008015151515815260200190815260200160002081905550505050565b600080828401905083811015615832576040517f08c379a000000000000000000000000000000000000000000000000000000000815260040180806020018281038252601b8152602001807f536166654d6174683a206164646974696f6e206f766572666c6f77000000000081525060200191505060405180910390fd5b8091505092915050565b60008383111582906158e9576040517f08c379a00000000000000000000000000000000000000000000000000000000081526004018080602001828103825283818151815260200191508051906020019080838360005b838110156158ae578082015181840152602081019050615893565b50505050905090810190601f1680156158db5780820380516001836020036101000a031916815260200191505b509250505060405180910390fd5b5060008385039050809150509392505050565b60008160030160009054906101000a900460ff161580615920575060008260010154115b9050919050565b8060030160009054906101000a900460ff168015615949575060008160010154115b156159665761595d81600101546001614f7f565b81600101819055505b50565b600081600301541415615a15576000816000015414801561598e575060008160020154145b801561599e575060008160010154145b80156159b5575060006159b382600401614fe7565b145b615a0a576040517f08c379a0000000000000000000000000000000000000000000000000000000008152600401808060200182810382526027815260200180615dc96027913960400191505060405180910390fd5b600181600301819055505b50565b600081600301541415615ac45760008160000154148015615a3d575060008160020154145b8015615a4d575060008160010154145b8015615a6457506000615a6282600401614fe7565b145b615ab9576040517f08c379a0000000000000000000000000000000000000000000000000000000008152600401808060200182810382526027815260200180615dc96027913960400191505060405180910390fd5b600181600301819055505b50565b6040518061010001604052806060815260200160008152602001600081526020016000151581526020016000151581526020016000151581526020016000151581526020016000151581525090565b6040518061010001604052806000815260200160008152602001600081526020016000815260200160001515815260200160001515815260200160608152602001606081525090565b828054600181600116156101000203166002900490600052602060002090601f016020900481019282601f10615ba057805160ff1916838001178555615bce565b82800160010185558215615bce579182015b82811115615bcd578251825591602001919060010190615bb2565b5b509050615bdb9190615c3f565b5090565b6040518060200160405280600081525090565b828054828255906000526020600020908101928215615c2e579160200282015b82811115615c2d578251825591602001919060010190615c12565b5b509050615c3b9190615c3f565b5090565b615c6191905b80821115615c5d576000816000905550600101615c45565b5090565b9056fe4d61726b6574506f6f6c5f4974656d733a204d61726b657420646f6573206e6f742065786973744f776e61626c653a206e6577206f776e657220697320746865207a65726f206164647265737352656c656173652074686973206974656d207479706520697320696d706f737369626c654d61726b6574506f6f6c5f4974656d733a204974206973206e6f74206f776e65724d61726b6574506f6f6c3a204d61726b657420646f6573206e6f7420657869737443757272656e742073616c65207265616c656173652069732064697361626c65644f6e65206f6620746865206974656d207479706520646f6573206e6f74206578697374734d61726b6574506f6f6c5f4974656d733a204974656d205479706520646f6573206e6f742065786973744d61726b6574506f6f6c5f4974656d733a20417474656d707420746f20636865636b207468652062616c616e636520617420746865207a65726f2061646472657373496e7465726e616c206572726f722077697468204c69737420496d706c656d656e746174696f6e43616e6e6f74206372656174652053616c652052656c6561736520776974686f7574206974656d2074797065734d61726b6574506f6f6c5f4974656d733a202766726f6d27206164647265737320657175616c2027746f2720616464726573734d61726b6574506f6f6c5f4974656d733a204974656d20646f6573206e6f742065786973744d61726b6574506f6f6c5f4974656d733a2063616e6e6f742063726561746520616e206974656d206f6620746869732074797065a2646970667358221220d15301494fb42ba10443bc354aa1263ae064035279b1bf4c2bac1155a906857964736f6c63430006030033",
  "source": "pragma solidity >=0.6.0;\r\n\r\nimport \"../library/Release/Sale/SaleReleasePosition.sol\";\r\nimport \"../library/Release/Sale/SaleReleaseDataList.sol\";\r\nimport \"../library/ListUint256.sol\";\r\nimport \"./MarketPool_Items.sol\";\r\n\r\ncontract MarketPool_ItemRelease_Sale is MarketPool_Items {\r\n    using SafeMath for uint256;\r\n    using SaleReleasePosition for SaleReleasePosition.Data;\r\n    using SaleReleaseDataList for SaleReleaseDataList.List;\r\n    using ListUint256 for ListUint256.List;\r\n\r\n    event SaleReleaseCreated(uint256 indexed marketId, uint256 indexed saleReleaseInnerId);\r\n    event SaleReleaseRemoved(uint256 indexed marketId, uint256 indexed saleReleaseInnerId);\r\n    event SaleReleaseUpdated(uint256 indexed marketId, uint256 indexed saleReleaseInnerId);\r\n    event SaleReleaseBought(uint256 indexed marketId, uint256 indexed saleReleaseInnerId, uint256[] itemIdArray);\r\n\r\n\r\n\r\n    // ID   ID       SaleItemList.List    \r\n    mapping(uint256 => mapping(uint256 => ListUint256.List)) private marketToItemTypeToInnerIndexesList;\r\n\r\n    // ID      \r\n    mapping(uint256 => SaleReleaseDataList.List) private marketToSaleReleaseDataList;\r\n\r\n\r\n\r\n    /**\r\n     * @notice Create new Sale Data for Release Items\r\n     */\r\n    function createSaleRelease(\r\n        uint256 marketId,\r\n        uint256[] calldata itemTypeIdArray,\r\n        uint256 totalSupply,\r\n        uint256 priceInWei,\r\n        bool enable)\r\n        external\r\n        onlyMarketOwner(marketId)\r\n    {\r\n        require(itemTypeIdArray.length > 0, \"Cannot create Sale Release without item types\");\r\n        for(uint i = 0; i < itemTypeIdArray.length; ++i){\r\n            require(itemTypeExist(marketId, itemTypeIdArray[i]), \"One of the item type does not exists\");\r\n        }\r\n\r\n\r\n        bool isFinal = totalSupply > 0;\r\n        uint256 innerId;\r\n        (,innerId) = marketToSaleReleaseDataList[marketId].add(SaleReleasePosition.Data(\r\n            marketId,\r\n            priceInWei,\r\n            totalSupply,\r\n            totalSupply,\r\n            isFinal,\r\n            enable,\r\n            itemTypeIdArray,\r\n            new uint256[](itemTypeIdArray.length)\r\n        ));\r\n\r\n        uint256 tmpInnerId;\r\n        SaleReleasePosition.Data storage saleRelease = marketToSaleReleaseDataList[marketId].getByInnerIndex(innerId);\r\n        for(uint i = 0; i < itemTypeIdArray.length; ++i){\r\n            (,tmpInnerId) = marketToItemTypeToInnerIndexesList[marketId][itemTypeIdArray[i]].add(innerId);\r\n            saleRelease.itemTypeIdToInnerIndex[i] = tmpInnerId;\r\n        }\r\n        emit SaleReleaseCreated(marketId, innerId);\r\n    }\r\n\r\n    function removeSaleRelease(uint256 marketId, uint256 saleReleaseInnerId)\r\n        external\r\n        onlyMarketOwner(marketId)\r\n        onlySaleReleaseExists(marketId, saleReleaseInnerId)\r\n    {\r\n        SaleReleasePosition.Data memory data = marketToSaleReleaseDataList[marketId].getByInnerIndex(saleReleaseInnerId);\r\n\r\n        for(uint i = 0; i < data.itemTypeIdArray.length; ++i) {\r\n            marketToItemTypeToInnerIndexesList[marketId][data.itemTypeIdArray[i]].removeByInnerlId(data.itemTypeIdToInnerIndex[i]);\r\n        }\r\n\r\n        marketToSaleReleaseDataList[marketId].removeByInnerlId(saleReleaseInnerId);\r\n        emit SaleReleaseRemoved(marketId, saleReleaseInnerId);\r\n    }\r\n\r\n    function updateSaleRelease(\r\n        uint256 marketId,\r\n        uint256 saleReleaseInnerId,\r\n        uint256 totalSupply,\r\n        uint256 priceInWei,\r\n        bool enable)\r\n        external\r\n        onlyMarketOwner(marketId)\r\n        onlySaleReleaseExists(marketId, saleReleaseInnerId)\r\n    {\r\n        SaleReleasePosition.Data storage data = _getSaleReleaseRef(marketId, saleReleaseInnerId);\r\n        data.priceInWei = priceInWei;\r\n        data.remainingSupply = totalSupply;\r\n        data.totalSupply = totalSupply;\r\n        data.isFinal = totalSupply > 0;\r\n        data.enable = enable;\r\n        emit SaleReleaseUpdated(marketId, saleReleaseInnerId);\r\n    }\r\n\r\n\r\n    function buySaleRelease(uint256 marketId, uint256 saleReleaseInnerId, address itemOwner)\r\n        external\r\n        payable\r\n        onlySaleReleaseExists(marketId, saleReleaseInnerId)\r\n    {\r\n        SaleReleasePosition.Data storage data = _getSaleReleaseRef(marketId, saleReleaseInnerId);\r\n        require(data.enable, \"Current sale realease is disabled\");\r\n        require(msg.value >= data.priceInWei, \"Not enough eth for buy this item\");\r\n        require(data.realeasePossible(), \"Release this item type is impossible\");\r\n        data.recordItemRelease();\r\n\r\n        uint256[] memory itemIdArray = new uint256[](data.itemTypeIdArray.length);\r\n\r\n        payable(marketToOwner[marketId]).transfer(data.priceInWei);\r\n        if (msg.value > data.priceInWei) payable(msg.sender).transfer(msg.value - data.priceInWei);\r\n\r\n        for(uint256 i = 0; i < data.itemTypeIdArray.length; ++i) {\r\n            itemIdArray[i] = _createItem(marketId, data.itemTypeIdArray[i], itemOwner);\r\n        }\r\n        \r\n        emit SaleReleaseBought(marketId, saleReleaseInnerId, itemIdArray);\r\n    }\r\n\r\n\r\n    /**\r\n     * @notice Return data about Sale Release for selected item type\r\n     */\r\n    function getSaleRelease(uint256 marketIdToFound, uint256 saleReleaseInnerId)\r\n        public\r\n        view\r\n        onlySaleReleaseExists(marketIdToFound, saleReleaseInnerId)\r\n        returns(\r\n            uint256 marketId,\r\n            uint256 priceInWei,\r\n            uint256 remainingSupply,\r\n            uint256 totalSupply,\r\n\r\n            bool isFinal,\r\n            bool enable,\r\n            uint256[] memory itemTypeIdArray\r\n        )\r\n    {\r\n        SaleReleasePosition.Data memory data = marketToSaleReleaseDataList[marketIdToFound].getByInnerIndex(saleReleaseInnerId);\r\n        return (\r\n            data.marketId,\r\n            data.priceInWei,\r\n            data.remainingSupply,\r\n            data.totalSupply,\r\n\r\n            data.isFinal,\r\n            data.enable,\r\n            data.itemTypeIdArray\r\n        );\r\n    }\r\n\r\n\r\n    /**\r\n     * @notice Return array of inner id's SaleReleases by itemTypeId\r\n     */\r\n    function getSaleReleaseArrayForItemType(uint256 marketId, uint256 itemTypeId)\r\n        external\r\n        view\r\n        onlyItemTypeExist(marketId, itemTypeId)\r\n        returns (uint256[] memory)\r\n    {\r\n        ListUint256.List storage list = marketToItemTypeToInnerIndexesList[marketId][itemTypeId];\r\n        uint256 length = list.getLength();\r\n        uint256[] memory resultArray = new uint256[](length);\r\n        uint256 innerIndex = list.iterate(0);\r\n        for(uint256 i = 0; i < length; ++i) {\r\n            uint256 item = list.getByInnerIndex(innerIndex);\r\n            resultArray[i] = item;\r\n            innerIndex = list.iterate(innerIndex);\r\n        }\r\n\r\n        return resultArray;\r\n    }\r\n\r\n    /**\r\n     * @notice Return TRUE if sale data exists\r\n     */\r\n    function saleReleaseExists(uint256 marketId, uint256 saleReleaseInnerId)\r\n        public\r\n        view\r\n        returns(bool)\r\n    {\r\n        return marketToSaleReleaseDataList[marketId].existsByInnerId(saleReleaseInnerId);\r\n    }\r\n\r\n\r\n\r\n\r\n    function _getSaleReleaseRef(uint256 marketId, uint256 saleReleaseInnerId)\r\n        internal\r\n        view\r\n        returns (SaleReleasePosition.Data storage)\r\n    {\r\n        return marketToSaleReleaseDataList[marketId].getByInnerIndex(saleReleaseInnerId);\r\n    }\r\n\r\n\r\n\r\n\r\n    modifier onlySaleReleaseExists(uint256 marketId, uint256 saleReleaseInnerId) {\r\n        require(saleReleaseExists(marketId, saleReleaseInnerId), \"SaleRelease does not exists\");\r\n        _;\r\n    }\r\n}",
  "sourcePath": "E:\\MeineArbeit\\Solidity\\market-pool\\contracts\\MarketPool_ItemRelease_Sale.sol",
  "compiler": {
    "name": "solc",
    "version": "0.6.3+commit.8dda9521.Emscripten.clang"
  },
  "schemaVersion": "3.0.23",
  "updatedAt": "2020-04-11T15:58:30.085Z",
  "networkType": "ethereum",
  "devdoc": {
    "methods": {
      "createMarket(string)": {
        "params": {
          "name": "The name of marketplace"
        },
        "returns": {
          "_0": "id of the created market"
        }
      },
      "isOwner()": {
        "details": "Returns true if the caller is the current owner."
      },
      "owner()": {
        "details": "Returns the address of the current owner."
      },
      "renounceOwnership()": {
        "details": "Leaves the contract without owner. It will not be possible to call `onlyOwner` functions anymore. Can only be called by the current owner.     * NOTE: Renouncing ownership will leave the contract without an owner, thereby removing any functionality that is only available to the owner."
      },
      "transferOwnership(address)": {
        "details": "Transfers ownership of the contract to a new account (`newOwner`). Can only be called by the current owner."
      }
    }
  },
  "userdoc": {
    "methods": {
      "createItem(uint256,uint256)": {
        "notice": "Can call only owner. Create Item for selected Market and Type. Owner of item will be owner of market"
      },
      "createItemType(uint256,string,uint256,bool,bool,bool,bool)": {
        "notice": "Create ItemType for selected Market."
      },
      "createMarket(string)": {
        "notice": "Create new Market for sender."
      },
      "createSaleRelease(uint256,uint256[],uint256,uint256,bool)": {
        "notice": "Create new Sale Data for Release Items"
      },
      "getItemData(uint256,uint256)": {
        "notice": "Return data about item"
      },
      "getItemTypeData(uint256,uint256)": {
        "notice": "Return data about item type"
      },
      "getMarketData(uint256)": {
        "notice": "Return all data of market by its id"
      },
      "getMarketOwner(uint256)": {
        "notice": "Return addres of market owner"
      },
      "getSaleRelease(uint256,uint256)": {
        "notice": "Return data about Sale Release for selected item type"
      },
      "getSaleReleaseArrayForItemType(uint256,uint256)": {
        "notice": "Return array of inner id's SaleReleases by itemTypeId"
      },
      "isMarketOwner(uint256)": {
        "notice": "Chech if it is market owner "
      },
      "marketExist(uint256)": {
        "notice": "Check if market exist "
      },
      "renounceMarketOwnership(uint256)": {
        "notice": "Renouncing ownership will leave the contract without an market owner, thereby removing any functionality that is only available to the market owner (e.g. creating new Item Types)."
      },
      "saleReleaseExists(uint256,uint256)": {
        "notice": "Return TRUE if sale data exists"
      },
      "transferItemOwnership(uint256,uint256,address)": {
        "notice": "Can call only item owner. Change item owner to ('to')"
      },
      "transferMarketOwnership(uint256,address)": {
        "notice": "Transfers ownership of the ('marketId') to a new account (`newOwner`)."
      }
    }
  }
}